:020000040800F2
:10000000A01E0020F1000008CB010008C901000873
:1000100000000000000000000000000000000000E0
:10002000000000000000000000000000290200089D
:100030000000000000000000E50100084502000883
:100040001D0100081D010008000000001D0100083E
:100050001D0100081D0100081D0100081D01000808
:100060001D0100081D0100081D0100081D010008F8
:100070001D0100081D010008190300081D010008EA
:100080001D0100081D0100081D0100081D010008D8
:100090001D0100081D0100081D0100081D010008C8
:1000A0001D0100081D0100081D0100081D010008B8
:1000B0001D0100081D0100081D0100081D010008A8
:1000C000000000001D0100081D0100081D010008BE
:1000D0001D0100081D0100081D0100080348854698
:1000E00000F05AF8004800478D290008A01E0020A3
:1000F0000B4802680B480240120C92020A4940F277
:10010000000001C1121F002AFBD10848804708489F
:100110000047FEE7FEE7FEE7FEE7FEE7FEE700003A
:10012000E00BFF1F0000FFFF000000206D02000831
:10013000DD00000803460B439B0703D009E008C914
:10014000121F08C0042AFAD203E00B780370401C87
:10015000491C521EF9D27047D2B201E00270401C15
:10016000491EFBD270470022F6E710B513460A4637
:1001700004461946FFF7F0FF204610BD30B504468F
:100180000020034600E05B1C934203D2E05CCD5CA0
:10019000401BF8D030BD00001CB50948009009484C
:1001A000019005460126009C05E0E36807CC334337
:1001B0000C3C98471034AC42F7D3FFF793FF000094
:1001C000943D0008B43D0008FEE7012003F038F933
:1001D000012800D1FEE7022003F032F9012800D106
:1001E000FEE7FEE7EFF309800E4A11682838086041
:1001F00000227346FCC044464D4656465F46F0C05A
:1002000072B603F039FB62B6064A11680868183006
:10021000F0C8A046A946B246BB4680F309882838F4
:10022000FCC81847D005002004207146084203D0BE
:10023000EFF30980024A1047EFF30880004A1047A5
:100240005937000810B503F005F9044603F034FCF3
:1002500018B10120000704490860204610BC02BC08
:100260008E4603F0CBB9C04604ED00E0F8B5244D4E
:10027000286801263043286028688007FCD5A868D4
:100280000327B843A8600D20000429688143296032
:10029000A8681C490140A9601B4801681B4A0A4024
:1002A00002600024EC601A48016831430622914341
:1002B0000160286830432860204602F021FE15487E
:1002C000401E214661412A68920701D40029F7D1D6
:1002D0002868800700D4FEE7A868A860A868A8601E
:1002E000A868B843A860A868A860A8680007800F3D
:1002F000FBD1F0060021F8BC04BC964602F0A4BB7A
:10030000001002400CC7FF888C1002407CE0FFFF09
:1003100000200240FF04000010B51B4C1B49204682
:1003200003F006F920B3204603F0C2F8C1B26139E8
:100330001A2900D22038C1B20D2901D00A2907D1CB
:100340001348417809B1017899B10021417010BD7D
:100350000F494A785E2A06D84A780E4B9854487856
:10036000401C487010BD002048708868401C8860A0
:1003700010BD4178074A0023535443700121017096
:10038000C168491CC16010BD003801400500050767
:10039000800000203806002010B560B1044603F04C
:1003A00063F9BE493C222046FFF7C4FE10BC01BCE5
:1003B000864603F063B910BDF8B5104802F0AAFDF7
:1003C0000920C50600240226012300932846214661
:1003D000324602F0B7F810272846214632463B46FF
:1003E00002F0B0F8009802F0B5FDAB4D2870384629
:1003F00002F0B0FDAC806C806870F8BD110D00009B
:10040000B0B50025B8B104465CA103F00BF830B1DB
:10041000002002F0C1FD5BA002F0D2FD07E05BA16D
:10042000204602F0FFFF40B1012002F0B5FD8448F4
:1004300001F084F801252846B0BD57A1204602F0FE
:10044000F1FF28B1012002F0A7FD08342046E3E7C0
:1004500054A1204602F0E6FF50B1022002F09CFDBC
:1004600055A1204602F0DEFF0028E0D01234EDE76F
:1004700056A1204602F0D6FF50B1032002F08CFDB9
:1004800056A1204602F0CEFF0028D0D01034DDE780
:1004900057A1204602F0C6FF08B10420C5E757A1C6
:1004A000204602F0BFFF08B10520BEE756A1204656
:1004B00002F0B8FF08B10020B7E755A1204602F0CE
:1004C000B1FF08B10620B0E754A1204602F0AAFF10
:1004D00040B103F0C9F853481430A21D102101F0B7
:1004E00031F821E050A1204602F09CFF58B103F002
:1004F000BBF8201D4B4C214630312246313202F0F0
:10050000AFFA36210FE04AA1204602F08BFF70B10E
:1005100003F0AAF8601D434C2146323122463332A3
:1005200002F09EFA3721605403F0A8F87FE74249B1
:10053000204602F077FF002800D17CE703F094F812
:10054000657995B1A11D00200A223C4B2C46303C18
:10055000092C09D8504328183038984200D318463F
:100560004C1C0D782146F1E70DB1002002E02D4929
:100570008886012038212B4A5054D5E741493D490E
:10058000444C45004E4F4E450000000041493D5748
:100590004F524B494E47000041493D544F4F4C3A52
:1005A0000000000041493D4E41544956455F4150CD
:1005B00050524F564500000041493D4E4154495666
:1005C000455F415050524F56453A000041493D5712
:1005D0004149545F415050524F56450041493D57A3
:1005E0004149545F415050524F56453A0000000077
:1005F00041493D415050524F5645440041493D44C8
:10060000454E49454400000041493D444F4E450098
:1006100041493D4552524F52000000004D4F444564
:100620004C3D0000280000204354583D00000000CD
:10063000524154453D000000243D00080F270000B2
:100640001A3D0008F8B5144EB168411A00250A2970
:1006500020D3B0600124204602F07CFCB21C331D84
:10066000314600F099FF0746102002F073FC711C20
:10067000F21C731D00F090FF084917B1083108A063
:1006800002E038B10C310AA00A68521C0A6000F07E
:1006900055FF25462846F8BDA4000020280000206C
:1006A00042544E3D415050524F56450D0A000000F5
:1006B00042544E3D44454E590D0A0000B0B515A0B8
:1006C0001A4DA8471AA0A84700F064FC1F4C2070E0
:1006D00008B125A000E01EA0A8472EA0A84702F060
:1006E00017F8207850B9304800F028FF00F0CEFB12
:1006F00020702E4800F022FF207810B1412001F038
:10070000B5FF01F083F92A48B0BC02BC8E4600F068
:1007100015BFC0465B30385D2064617368626F61ED
:10072000726420696E69740D0A0000003D150008AE
:100730005B30385D20666C6173682061737365742B
:1007400020696E69742E2E2E0D0A000064000020B0
:100750005B30385D20666C6173682061737365740B
:10076000206F6B0D0A0000005B30385D20666C6105
:100770007368206173736574206572726F722C20C8
:1007800066616C6C6261636B2073637265656E0D8C
:100790000A0000005B30385D206C636420696E697C
:1007A000742E2E2E0D0A00002A3D0008533D00082D
:1007B0006F3D0008F0B589B0002800D127E30D4651
:1007C000002900D123E3174608900AB1397800E0E8
:1007D0000021481E0C468441EA4E3078A042069122
:1007E00016D17078A04200D088E0E7484178491CD3
:1007F0004170C9B2022900D286E00021417001781F
:100800004A1C032111400170204601F065F97BE08C
:1008100000295DD0DD480090222626210491AC22DB
:10082000282330460797DA4FB847DA4800900595F5
:100830001E200290B42702233146D24E3A46039737
:10084000D34DA847D448009027210323029D284672
:100850003A46CF4FB84741200090C4217A2328461A
:10086000039ACB4DA847C9480090C621A422039201
:100870001C23049D2846C64FB847C8480090E8216D
:1008800016232846039A1D460293C14FB847C34812
:10089000009040F20A10801F81B20498039F3A46EC
:1008A0002B46BB4DA847BD48009040F20A111631B7
:1008B00004983A46079F029BA847002528462946E8
:1008C00000F070FF01202946059D01F04DFA01E07E
:1008D00001F09CF8FF207070AB4800210175017297
:1008E000AF4AB281AF4A72803470C94331617161DD
:1008F000B161F16131627160B1604160A248002173
:100900000180204601F030FA28682979B2788A42BD
:1009100002D13269824205D000F044FF2879B070DC
:100920002868306106980028089C7CD0002F00D1F0
:100930006DE23846303008903D783079A8423CD19D
:100940007868316A814238D18F4C2046143039465C
:1009500014311022FFF712FC78BB083439462431D9
:100960000C222046FFF70AFC38BB08980078717902
:10097000814222D108984078B17981421DD10898EE
:100980008078F179814218D10898C078317A814213
:1009900013D1B88EB18981420FD108988079717ACC
:1009A00081420AD10898C079B17A814205D108986C
:1009B000007AF17A814200D129E2681EC0B205288E
:1009C000744D02D8400078A10D5A7048009026203E
:1009D000C621A4221C2301F02BFD00952A20C92149
:1009E0009C22052301F024FD3878401E6A4C05281E
:1009F00000D9E9E06FA2810001A359188F46C046D3
:100A000000F0E3B800F008B800F0B0B800F0B5B8F6
:100A100000F0AAB800F0B3B8082000903020D4212C
:100A200066A22346D6E02079F178814205950DD162
:100A30002078617809020818A1780904E278120682
:100A400051180818F749496881424BD0F24C00947C
:100A50002420E0263A221B2731463B4601F0E8FCE1
:100A60000094089C6C20502231463B4601F0E0FC8B
:100A70002079A0B1ED4D00953020EC2620220427EE
:100A800031463B4601F0D4FC00957C202C223146B7
:100A90003B4601F0CDFC2846DE4E059D16E0A178D0
:100AA0006324632900D32146089807783120E04A5F
:100AB00000F096FF632FD74E00D327468420D84AF4
:100AC000394600F08DFFD848059D089C0090C22053
:100AD000E5210C22134601F0ABFC2079F070206870
:100AE000D0494860A0687169814208D1E068B16965
:100AF000814204D1E868F169814200D187E1C648AA
:100B0000009040F20A17791C2620A0220C2301F045
:100B10008FFCA06840F2E836B0FBF6F17143421A50
:100B2000BF1C2A203946C04BC24DA847E068B0FB25
:100B3000F6F17143421A62203946BC4BBD4CA047C6
:100B4000059CE068B0FBF6F17143421A9A203946E1
:100B5000B24BB84EB04708998868AE4A5061C86831
:100B60009061E068D06152E1B5A22EE00E200090C5
:100B70003020D421B6A2BA4B2CE0AFA225E0B2A21D
:100B800023E0C046000000204C010020E4080000E3
:100B9000312400086FF50000BD67000087110000D8
:100BA000FFFF0000FF020000BD67BD67E0FDB76FFB
:100BB000CEF2CEF2574F524B000000005445524D3A
:100BC0002031323300000000A6A207200090302020
:100BD000D4212B4601F014FC3878012808D10A20D2
:100BE00000903A4624326820D421234601F008FCC4
:100BF0008948009026200390E821A422059216231C
:100C0000049301F015FC022000902A26EE2497A2FE
:100C1000874B974D30462146A847102000900797F4
:100C200014373A20214606973A467D4BA8472C4672
:100C30007948009040F20A10801F81B20398059A0B
:100C4000049B01F0F5FB032500958AA2304640F293
:100C50000A11774BA047089FB879734E40B33A7892
:100C60004A2040F20A116D4E334601F09DFB64208C
:100C7000252440F20A11224633466B4E01F0DEF97C
:100C80000120009070207C4A40F20A11684B01F06C
:100C9000B7FB7A787C2040F20A11334601F084FBDE
:100CA000962040F20A112246334601F0C7F907E0C8
:100CB00000954A20714A724B40F20A1101F0A0FBE4
:100CC0005548009040F20A1116312620A42216231E
:100CD00001F0AEFB387AB8B3009540F20A171C3722
:100CE0002A20684A3946524B01F08AFB0798808EC9
:100CF000059080B235466426B0FBF6F44A203946AA
:100D000022462B4601F050FB62202E2239462B460C
:100D100001F094F966430598801B0590C0B20A263D
:100D2000B0FBF6F46A20394622462B4601F006FB5A
:100D300066430598801BC2B272203946079C2B4639
:100D400001F0FCFA334E41E0F879394B60B300957D
:100D500040F20A161C362A204BA231461D4601F0ED
:100D60004FFBBA784A20314B314601F01DFB64201D
:100D70002524314622462D4B01F060F901200090D8
:100D800070203D4A31462B4601F03AFBFA787C2030
:100D90003146254D2B4601F007FB96203146224671
:100DA0002B4601F04BF90FE0009540F20A141C3479
:100DB0002A20344A214601F023FB00954A202F4A7D
:100DC0002F4B214601F01CFB124E079C20783071FE
:100DD00060683062134801461431069F3CCF3CC125
:100DE000079D2946243108301CC91CC00899087881
:100DF00070714878B0718878F071C87830728879ED
:100E00007072C879B072A88EB081087AF07209B099
:100E1000F0BDC04600000020871100006FF5000003
:100E2000BD6700004C010020B76F0000CEF200004B
:100E30007CE70000A9230008414C4C4F57000000FC
:100E400044454E59000000004552524F52000000E8
:100E5000504130204F4B20504134204E4F00000075
:100E6000E0FD000049444C45000000004D3A000000
:100E700001240008435458008E3D0008863D0008B8
:100E800029B300008A3D00084C494D00F0B58BB0F5
:100E9000012006A901F0FEFA0546002875D106A832
:100EA00041880225012970D18189F0296DD1C0893D
:100EB00040F24011884268D1089C079D344840F2B6
:100EC000E011FFF750F96019039002F029F90022B0
:100ED000042002901746039885424ED240F24010FB
:100EE00082424AD205AE304629461446029A02F0A2
:100EF000F1F82246B078F17809020C183078717850
:100F000009020E182D1D04951546300432D040F20A
:100F1000401085422ED2F020C01B80B2B1B2884270
:100F200000D3084679001A4A51180246130404D027
:100F30000C80891C521E7F1CF8E7361AF02FE4D370
:100F400001F092FB12480090A9B20027EF22384628
:100F50000B4601F0B9FB6A1C049803998842D3D26E
:100F600040F24010401E8542CED2154602F0D8F81D
:100F70002A46C9E72A46049DADE740F24010101A00
:100F8000411E8841450001F06FFB28460BB0F0BDC3
:100F9000F0030020F0B59FB002F0C2F802F01AF999
:100FA0006349884200D094E00AAD00241422284608
:100FB000214602F08FF8287B697B090209185D48F9
:100FC00081800346287A6A7A12021018AA7A1204DB
:100FD0008018EA7A1206801800909860287C6B7C52
:100FE0001B021818AB7C1B04C018EB7C1B06C01836
:100FF000EA780492AE782A786F78AB790293EB792D
:1010000001932B7903936D794A4BD860380280188D
:1010100032048018049A120682180220464B9A4223
:1010200058D12A02039BD218012A53D1082951D83A
:10103000019A1202029BD318142B4BD3009A9A42A6
:1010400048D91420049025468D4245D226461436B0
:1010500005AF38463146049A02F03CF83878797882
:1010600009020818354908530819B978FA781202A4
:101070005118418039797A7912025118BA791204DB
:101080008918FA79120689184160397A7A7A120237
:101090005118BA7A12048918FA7A120689188160EE
:1010A000397B7A7B120251188181B97BFA7B12025B
:1010B0005118C181397C7A7C120251180182B97CA5
:1010C000FA7C1202511841826D1C1A4881883446FC
:1010D000BAE701201FB0F0BD16488168C0680290D1
:1010E00014390027402003903E460491B94214D998
:1010F000CC1B402C00D3039C394614310FAD28463D
:10110000224601F0E7FF204620B129787618401EDC
:101110006D1CF9E7E7190499E8E70298B04204D199
:101120000120044908700020D4E70320D2E7C0461C
:101130001540C800B000002043554931700100201F
:101140000F2001F007BC01F005BC0000FEB5894C82
:10115000134D2046A847E01CA847601CA847002460
:10116000012000900194009F019D102C11D00D488A
:1011700006590D4803590293304639462A4601F074
:10118000E1F9304629463A46029B01F0FFF9241D59
:10119000EBE70020FEBC02BC8E4601F0DBBBC04684
:1011A000152F0008B83C0008C83C000830B4029C69
:1011B00013B1394B08255D70374B5D68451B5A2DBF
:1011C00001D230BC70475860A01E042832D881007C
:1011D00001A251188F46C04600F008B800F023B8AD
:1011E00000F014B800F019B800F007B81878411CE6
:1011F0001970C00726D10A2048E01878411C1970E0
:101200000121014049420F2008403FE01878411C6D
:101210001970C00714D1062038E01878411C1970E5
:10122000C007000F32E01878411C1970C0070BD0BE
:1012300003202BE0587848B1401E5870C00701D0F9
:101240000F2023E0052021E00C201FE0012C09D114
:101250001878411CCAB20B2A00D9002119700FA1BD
:10126000085C13E061B11978481C92B1C2B20F2A30
:1012700000D900201870072001404842484105E08D
:101280001878411C1970C007C5D0092030BC01F086
:1012900061BB18700120B4E778000020010302064A
:1012A000040C080C04060203F8B578B1044602F0F9
:1012B000DBF9A048014610312246E8C9E8C280683F
:1012C0002061F8BC01BC864602F0D8B9F8BDC04622
:1012D000F8B5284801F01EFE274801F01BFE092042
:1012E000C70601253846294640F2006201F0F0F8B1
:1012F0000224384621462A4640F2006301F022F9D2
:101300000026384631462A4640F2006301F03EF995
:101310001A4D284602F0D6F8E1204102284602F094
:101320009DF82846314602F041F92846314602F040
:1013300025F92846314602F00AF90421284602F030
:1013400014F90821284602F028F9284602F0DAF8B4
:101350000E20214601F04EFB0521284602F0DFF861
:1013600007A001F001FE0EA0F8BC02BC8E4601F001
:10137000FBBDC046110D00000E11000000380140F9
:101380000D0A436C6175646520554920646173687A
:10139000626F6172642072656164792E0D0A0000CB
:1013A00053657420636C6F636B2077697468205495
:1013B000494D453D48483A4D4D3A5353206F7220B0
:1013C000543D48483A4D4D3A53530D0A0000000031
:1013D000F0B59BB002F048F9394F387898B16C46B7
:1013E000384960222046FEF7A5FE0020387002F042
:1013F00045F9F869401CF8613349204602F004F8C9
:1014000028B1052009E002F039F9002432E06846ED
:101410002EA101F0F9FF28B3022069460C181AA981
:10142000204601F050FBE8B1A0783A281AD1E01C20
:1014300019A901F048FBA8B160793A2812D1A01D82
:1014400018A901F040FB68B1207A58B91AA80078B1
:10145000172807D819A909783B2903D818AA1278A0
:101460003B2A0AD96846FEF7CBFF012410B91DA01C
:1014700001F07AFD20461BB0F0BD40F610634343F7
:101480003C204843C01884186D460F49284601F097
:10149000BBFF06463C6102F00BFB01243C75786003
:1014A000B869401CB8610AA00C4FB8470EB10520BE
:1014B00000E002202818B84709A0B847DAE7C0467C
:1014C0008000002038060020143D0008543D000034
:1014D0000D0A4F4B2054494D453D0000692F00082F
:1014E0000D0A00000D0A45525220757365205449BB
:1014F0004D453D48483A4D4D3A53530D0A000000C2
:101500000C490A7DA2B14A68801AC3087D2B0ED30C
:1015100040F2E833B0FBF3F043439A184A600A699B
:101520001018054AB0FBF2F35343C01A0861704724
:1015300048607047800000208051010008B101F030
:1015400013BD704770B5F8B102B9124A4B1E0021A5
:10155000DBB2CCB29C4213D215788DB12E46413EFF
:101560001A2E09D32E46303E0A2E05D32E462D3E86
:10157000022E01D35F2D01D10555491C521CE8E70D
:1015800000220255090600D070BD42702D21017065
:1015900070BDC0468F3D000810B50C78844206D15E
:1015A000117841B158B1187838B9012008E00870B5
:1015B0000020107010BD01201070002010BD002010
:1015C000187010BDB0B50D4909680D4A914202D39B
:1015D000B1FBF2F100E0012148430A490A1F1268F9
:1015E000521C0C680023834207D20D68AC4200D223
:1015F000A418641BE3182C46F5E7B0BD24000020B6
:1016000040420F0018E000E080B5044801F082FC81
:1016100080BC01BC864600F087B8C046120D0000B1
:10162000F0B585B003AA00211171039160B3029057
:10163000404E0022012430462146234600F082FF1E
:10164000304621462246234600F0A0FFB462142013
:1016500002F0C8F802F008F800F066F81E20FFF764
:10166000B1FF204600F08CF848B90025284600F06C
:1016700087F820B90124204600F082F840B101F03B
:10168000FDFF00F051F800E00424204605B0F0BD55
:101690002820009001242E460195282E1AD0284695
:1016A00000F06EF80028EAD10098FFF78BFFF708EA
:1016B00003A8C15D4D00C55500F02EF810B12543BB
:1016C00003A8C555204600F05BF8761C0028019D54
:1016D000E3D0D4E701F0D2FF00F026F803AD28787C
:1016E00069780B18AA789C18EB78E418E6B22D7983
:1016F000AE420DD10D46054315431D4325432C062F
:1017000008D0029CE370A270617020700024BCE7D6
:101710000224BAE70324B8E780B50648012100F0A7
:101720000BFF411E884180BD024800210122134663
:1017300000F008BF0004004882B0FFF765FF0E48C4
:1017400002F050F80D4D01A8FFF76AFF044601F0C2
:101750008BFF2C71A868401CA8601CB1E868401C75
:10176000E86001E00198286001F088FF40F2D07045
:1017700002F038F8E7E7C046DC050000680000200A
:10178000F8B50546782700240126FFF7C5FFA842D3
:1017900006D127B13046FFF715FF7F1EF5E7344627
:1017A0002046F8BDF8B50D460446C54800902420F3
:1017B0002B21A822222300F03BFE45B340F6106007
:1017C000B4FBF0F0C1B22B20BF4D2A46204B984706
:1017D0005620294600F040F83C26B4FBF6F7B7FB4C
:1017E000F6F07043391A63202A46194B98478E2029
:1017F000294600F031F87E43A01BC1B29B202A4647
:10180000134B01B0049CA646F0BC01B01847114828
:1018100000903E203A2412250326AA4F21462A464C
:101820003346B8470B4800905C2021462A46334691
:10183000B847084800907A2021462A463346B847E0
:1018400004480090982021462A463346B847F8BD00
:101850001919000829B300007CB50C460546009113
:10186000372103263246334600F0E2FD009443213F
:1018700028463246334600F0DBFD7CBD7CB50929A5
:1018800049D8144605465548465CF00707D00094F1
:10189000E81C80B22D210A22032300F0C9FDB00705
:1018A00008D5009428460D3080B2302103220B2346
:1018B00000F0BEFD700708D5009428460D3080B2B8
:1018C0003E2103220B2300F0B3FD300707D500941F
:1018D000E81C80B249210A22032300F0A9FDF0068A
:1018E00006D500943E2103220B23284600F0A0FDDC
:1018F000B00606D50094302103220B23284600F0C1
:1019000097FD700607D50094E81C80B23B210A229F
:10191000032300F08DFD7CBDF8B500920D46064610
:101920000A24B1FBF4F73946FFF7A8FF7C43281BD4
:10193000C1B21536B0B2009AF8BC08BC9E46FFF79B
:101940009DBF00007CB5144605462448465CF00760
:1019500007D00094A81C80B2E1210822022300F0E5
:1019600067FDB00708D5009428460A3080B2E3210D
:1019700002220A2300F05CFD700708D50094284677
:101980000A3080B2EF2102220A2300F051FD300715
:1019900007D50094A81C80B2F9210822022300F088
:1019A00047FDF00606D50094EF2102220A232846BF
:1019B00000F03EFDB00606D50094E32102220A2382
:1019C000284600F035FD700607D50094A81C80B2AB
:1019D000ED210822022300F02BFD7CBDD83C00083D
:1019E000F8B500920D4606460A24B1FBF4F73946D5
:1019F000FFF7A8FF7C43281BC1B21036B0B2009A93
:101A0000F8BC08BC9E46FFF79DBF0000FEB52C4801
:101A1000009022272621AC222823CC4C3846029164
:101A2000A047D04800901E26B425022330463946F0
:101A30002A46A04725480078254908B1084600E015
:101A4000C44800902721032330462A46BF4FB84799
:101A500041200090C4217A2330462A46B8471D4CC5
:101A600000942420E0253A221B2629463346B84715
:101A700000946C20502229463346B8470094A02297
:101A80000C23029840F20B11B8470024204621464F
:101A9000FFF788FE0D48007808B10D4800E0AC481B
:101AA0000090522058214C220423A84DA8472046DC
:101AB000214603B0F0BC04BC964600F055B9C046C0
:101AC000E4080000312400086FF5000064000020E5
:101AD000CEF2000087110000F0B585B00F4601245A
:101AE0000C40994D002858D0049700957C209021F7
:101AF00036221923954FB847412003900090AE2518
:101B000056212626042328463246B8472120009035
:101B10005A211E2328463246B8478D4F8D4804B1BE
:101B2000074600977E209821072605233246029318
:101B3000864DA8470097852093270F2339463246C4
:101B4000A8470220049901400491824D00D0804DA5
:101B5000009594201423394632467C4EB0470095B8
:101B60008E20A2210D22029BB047002C40D1784C40
:101B70000094A225962107260527284632463B4693
:101B8000724CA04772480090A9209B2132463B46E8
:101B9000A0476F480090A0213FE021200090B02096
:101BA0005C212422442300F043FC04B96B4D0095D2
:101BB0004C2065215822062300F03AFC0220074001
:101BC0006748002C7AD10090B82068250526182394
:101BD0005E4C29463246A04761480090BD200D2248
:101BE00029463346A0475E480090B2207C217AE027
:101BF000584C0094A22592210726052728463246F4
:101C00003B46524CA04753480090A92097213246AA
:101C10003B46A0474F4800909C21284632463B4611
:101C2000A0474D49049810BB0091B7250E465C2192
:101C30000824284622462346FE4FB8470096AF2088
:101C40006426314622462346B8470398009028462A
:101C5000314622462346B8473F480090BF203146D0
:101C600022462346B8473C4800906C2121E0009171
:101C7000B9250E4658210824284622462346ED4F12
:101C8000B8470096B1206026314622462346B84721
:101C9000039800902846314622462346B8472E48EE
:101CA0000090C120314622462346B8472A4800907A
:101CB0006821284622462346B84742E00497254F2C
:101CC0000097B820602505261823DA4C29463246AD
:101CD000A0470097BD200D2229463346A047009714
:101CE000049FB22074210B220823A0479FB91C4FE8
:101CF0000097C420882404251223CE4E21462A466C
:101D0000B0470097C820092221462B46B0470097CC
:101D1000BE20972112E0C64F0097C6207F240425DD
:101D20001223C44E21462A46B0470097CA200922F2
:101D300021462B46B0470097C0208E210A22082357
:101D4000B04705B0F0BDC046663100003124000840
:101D5000B76F0000BD670000E0FD0000E318000061
:101D60007CE700006FF50000F0B58FB00D910446E0
:101D700041200C9000901E205221B422702300F0CC
:101D800057FB2120009026205A21A422602300F036
:101D90004FFBA74F0E94002C00D183E000973A2010
:101DA000069070210A91682205923223A14CA04727
:101DB00000972E2004907E260E24222731462246AC
:101DC00002943B469B4DA847994D0095A020039057
:101DD000314622463B46974EB04700953620A22515
:101DE0000C27172429463A4608972346B0479048BF
:101DF00000905020099029463A462346B0478C4827
:101E00000090742029463A462346B04788480090FF
:101E10008E20079029463A462346B047844C0094CA
:101E200098210A230B930698059AB04700949A24A8
:101E3000062604982146029F3A4633467D4DA84720
:101E40007B480090039821463A463346A8470C9FAA
:101E50000097562080240B2621460B9A3346754D59
:101E6000A84700978B2021460B9A3346A8476E4C13
:101E7000009488214A2226230A98A8476B4800909C
:101E800076203E221A230799A84700946E20AE219F
:101E90000823099AA84700946020A6211422089BD1
:101EA000A847B6E0009748200790742160220B9263
:101EB0003023604CA04700973A20069082251024DA
:101EC00022272946224604943B465A4EB047584E94
:101ED0000096A6200590294622463B46554CA04731
:101EE00000964620A4260C271825314608963A4627
:101EF0002B46A0474E4800900B9831463A462B4659
:101F0000A0474B480090842031463A4609972B461B
:101F10000A95A047464800909E24204631463A46FE
:101F20002B46444DA847424E00969A210A2303931C
:101F300007980B9AA847009606270B970698214604
:101F4000049E32463B463B4DA847394800900598D1
:101F5000214632463B46374CA0470C9E00965820FF
:101F6000079085270B2306933946039D2A46314C5B
:101F7000A04700968E2039462A46069BA0472A4F46
:101F800000974C206521079A0B9B2646A047009797
:101F900044206B24082521462A462B46B04700974B
:101FA000089821462A462B46B04700973C207327C5
:101FB00012243946099E324623461E4DA8471A4828
:101FC0000090A8203946324623461A4FB847164893
:101FD0000090342081252626294622463346B847DC
:101FE00011480090AA20294622463346B8473E466B
:101FF0000E48009038208724072521462A460A9F4C
:102000003B46B04709480090B12021462A463B464E
:10201000B0470E9C20460D99FFF75EFD601E84417F
:10202000054844700FB0F0BDE318000066310000B1
:102030006FF500003124000800000020F0B589B0E1
:102040000D4607A900240C710294079411463039FB
:10205000CCB2092C08D82946224609B0049CA646D1
:10206000F0BC01B000F06AB90493253A3A2A00D9CD
:1020700032E19300059001A1C818874600F074B8BA
:1020800000F02AB900F028B900F026B900F024B910
:1020900000F022B900F020B900F01EB900F0AEB88F
:1020A00000F095B800F018B900F016B900F014B9B6
:1020B00000F012B900F010B900F00EB900F00CB940
:1020C00000F00AB900F008B900F006B900F004B950
:1020D00000F0B0B800F000B900F0FEB800F0FCB8B5
:1020E00000F0FAB800F0F8B800F0F6B800F0A7B8C1
:1020F00000F075B800F086B800F089B800F0A7B815
:1021000000F0A2B800F04AB800F06EB800F055B880
:1021100000F039B800F080B800F083B800F0A1B842
:1021200000F09AB800F025B800F04CB800F09EB866
:1021300000F024B800F03CB800F02DB800F059B819
:1021400000F026B800F09CB800F095B800F02BB86D
:1021500000F040B800F0C0B800F0BEB800F0BCB865
:1021600000F0BAB800F062B807A8052101715B4819
:102170008AE007A807210171634885E007A80521C7
:1021800001715E4880E007A80721017163487BE088
:1021900007A802212FE007A8022110E007A80721C5
:1021A0000171604870E007A8022101714D486BE0A1
:1021B00007A807210171504866E007A807210171AF
:1021C0004C4861E007A8042101714E485CE007A873
:1021D00002212DE007A807210171414854E007A81A
:1021E0000621017153484FE007A8052101714C48B1
:1021F0004AE007A8072101713D4845E007A80721EB
:10220000817042E007A80721017149483CE007A816
:1022100006210171454837E007A8052101713E48B4
:1022200032E007A8072101713A482DE007A80721ED
:1022300001712AE007A80221C170417025E007A8BA
:10224000052101713C481FE007A8042101E007A80F
:1022500007210171344817E007A8052101712B48B7
:1022600012E007A80521017129480DE007A8012106
:102270000171234808E007A8052101711A4803E00D
:1022800007A805210171194807900224029A0599AF
:102290000195052A20D007A8865C039250004019BA
:1022A00080B206902746029D032D11D03046F8409B
:1022B000C0070AD0049800906800401880B20699C0
:1022C0002246234600F0B4F805997F1E6D1CEBE70B
:1022D000039A521C019DDCE709B0F0BD0501020420
:1022E00007010204050502020505020505050707A9
:1022F0000505050507020202070407010705070691
:10230000070505070705070407050505050707076E
:102310000507070504040404050506050101010578
:102320000505070507040505070406040605050558
:10233000070404040605060502050705F0B589B083
:10234000089305910790092A01D909B0F0BD00232F
:10235000052050431349081803900220029004936B
:10236000052BF2D058000599401803990693CD5CCF
:1023700087B2029C049E032E11D02846E040C0077D
:102380000AD00898009070000799401880B2022285
:102390003946134600F04CF8641E761CEBE7069BAA
:1023A0005B1CDDE7E23C0008FEB5029201910646A7
:1023B0006420B2FBF0F00A24B0FBF4F26243821A0C
:1023C0000E4D30461F460093A8470298B0FBF4F527
:1023D000B5FBF4F060432A1A3046083080B2019908
:1023E0003B46064FB8476C430298001BC2B21036FA
:1023F000B0B20199009B014CA047FEBD3D230008EF
:10240000FEB50293019192B115460746089C00263D
:102410002A7862B1A6420AD2F0B2C000C01980B2D6
:102420000199029BFFF70AFE761C6D1CF0E7FEBDCA
:10243000FEB5029105461018F02801D9F020421B84
:1024400091B240F24010029C001B1C19104E089FD4
:1024500019B13780B61C491EFAE740F240118C4290
:1024600000D81846A918491E002784B28EB2B8B207
:10247000A0420BD2064800900298381881B2284634
:1024800032460B4600F020F97F1CF0E7FEBDC04647
:1024900010020020B0B502460B4C23780220012B1D
:1024A00011D181B1094B143BA088441C0420641E47
:1024B00009D09D8A14339542F9D114220846194651
:1024C000FDF738FE0020B0BDB000002070010020F4
:1024D000FCB513460F2201921140046A0090456A30
:1024E00000263746202E0CD01A46FA40D20705D0D7
:1024F0000A46B2400198B04084431443361D7F1C05
:10250000F0E708260027202F0CD01846F040C0071F
:1025100005D00846B840019ABA40954305433F1D8F
:10252000761CF0E7009804624562FCBD89B28162C6
:10253000704789B2816170470069084080B2411ECE
:1025400088417047FEB5029303231A4001920A4660
:1025500019461A4005680090C66800273C46202F9F
:1025600010D0029BE340DB0709D0019BBB4008462B
:10257000B84086431E431346BB4085431D43BF1CE2
:10258000641CECE700980560C660FEBDF0B59CB227
:10259000C90702D14168A14301E04168214341607C
:1025A00001210A4084680025102D09D00E46AE4056
:1025B0001E4203D01746AF40B4433C436D1CF3E7C3
:1025C0008460F0BD9EB0FEF779F820A0FEF7B6FF5C
:1025D00001F06EFA019001F06BFA04460390FEF7E9
:1025E000F7FE05902046FEF78BFF2046FEF72AF8FF
:1025F000049015A80290FEF757FE06AE3046FDF790
:10260000CBFE01F031F81AAD164829469CC89CC192
:10261000039C01F033F8029801792879327800920E
:10262000424242410598049B03432046FEF7BEFD0B
:102630000198201AFA2805D31AA815A906AAFEF7A8
:10264000B9F80194052001F0CDF8C4E75B30385D9E
:1026500020677569206C6F6F702072756E6E696E81
:10266000670D0A006800002000F0BCBCFEB50646FD
:102670000024EF222046214640F23F1300F026F9C5
:10268000AA4880210160A34840F200110161350A87
:1026900040F2001040300290F0200190F6B2029813
:1026A00084420BD0019F3FB1284600F09BFE30468C
:1026B00000F098FE7F1EF6E7641CF0E7954840F2B4
:1026C00000110160FEBDC046F8B51C4616460D4619
:1026D000074600F0FBF89548802101608D4840F2E4
:1026E00000110161F01B401C611B4C1C4443069D02
:1026F0004CB12E88300A00F075FEF0B200F072FE88
:10270000641EAD1CF4E7834840F200110160F8BD7F
:10271000F0B58DB000F066FC7E4840F2001101611A
:10272000824D40262E6164200990664FB8472E6086
:102730003220B847CB20784DA8473920624EB047A9
:102740002C200C90B04700273846B0473420B047C3
:102750000220B047CF20A8473846B047C1242046C2
:102760000A94B0473020B047E820A8478520B047FA
:102770003846B04778200B90B047EA20A847384643
:10278000B0473846B047ED20A8470998B047032026
:102790000890B0471220B0478120B047F720A847E3
:1027A0002020B047C020A8472320B0472046A84794
:1027B00010200790B047C520A8473E20B0472820EA
:1027C000B047C720A8478620B04736200990A847C1
:1027D0008820B0473A20A8475520B047B120A847E5
:1027E00002973846B0471820B047B620A8470824BB
:1027F00020460394B0478220B0472720B047F220FC
:10280000A8473846B0472620A8470120B047E02017
:10281000A8470F200690B04731200490B0472B20E6
:10282000B0470C200590B0470E252846B0472046FB
:10283000B0474E20B047F120B0473720B0470720BF
:102840000190B0470798B047089F3846B0472846E0
:10285000B0470920B047029C2046B047E1202E49EE
:1028600088472046B0472846B0471420B04738462E
:10287000B04711252846B0470198B047049F384615
:10288000B0470A98B0474820B0470398B047069C25
:102890002046B0470598B0473846B0470998B0473A
:1028A0002046B04728461C4CA0470B98054988474E
:1028B0002920A0470C98A04740F200101549086055
:1028C0000DB0F0BDE537000821290008F8B50093E8
:1028D00016460D4607460F4840F2001101612A20B6
:1028E0000D4CA047380AF9B20C4FB847300AF1B284
:1028F000B8472B20A047280AE9B2B8470099080A30
:10290000C9B2B8472C20A04740F200100149086026
:10291000F8BDC046180000484529000831290008C4
:10292000024980220A6000F05DBDC04618080048D8
:1029300010B50C46FFF7F4FF204610BC02BC8E46D3
:10294000FFF7EEBF024980220A6000F04BBDC0468F
:1029500028080048F8B5044600250A4E0A4F042D01
:102960000ED02046E840C0073168386802D0FFF733
:10297000E0FD01E0FFF7DAFD3F1D361D6D1CEEE7BF
:10298000F8BDC046C83C0008B83C000882B0FEF75D
:10299000DDFBFDF711FDFEF79BFC002402200090FB
:1029A00001940F480FA140F20032234600F0C8FF07
:1029B00001280FD10120009001940B480BA1802227
:1029C000234600F0BDFF012807D100F021FFFEF7EC
:1029D000B7FBFEE7FEF7B4FBFEE7FEF7B1FBFEE751
:1029E000C5250008677569003917000864687431E7
:1029F0003100000010B5002805D40322034693439C
:102A00000F4A9A1803E00C2202400C4BD21883079D
:102A1000DB0E8907090E9940FF249C401368A343ED
:102A20000B431360002808D4C1081C220A401F2150
:102A30000140012088400349505010BD14ED00E0D2
:102A400000E400E000E100E0034A0A4002430348DA
:102A50000260BFF34F8F704780FFFF1F08ED00E05B
:102A6000F8B50023F8B1F1B11446E2B100230A220F
:102A700005782E46303E092E04D853435B19303B6F
:102A8000401CF5E72C2D0DD1009400250126845D16
:102A90002746303F092F04D855432D19303D761C69
:102AA000F5E714B100231846F8BD9BB26420642BEF
:102AB00000D303460B70A9B26429009A00D30146E3
:102AC00011700123EFE7024603780020302B0CD36E
:102AD000392B0AD85278302A07D3392A05D80A2048
:102AE000584380181038087001207047FEB506461C
:102AF0001D4F3C68786A0290B86A01900D4D2868B5
:102B0000001D00F061FDA619286846602868011DB7
:102B1000A64206D2019803B0F0BC04BC964600F071
:102B20007BBD029800F078FDB868864200D2BE6096
:102B3000FEBDC046D0050020044C2068022801D309
:102B400000F026FE00F04FFDF7E7C046D405002058
:102B50000548416A096819B1416AC968096801E014
:102B60000021C94381607047C000002081B000206F
:102B7000009005480068401C00D0FEE772B600983F
:102B80000028FCD001B07047981A0020FEB501461D
:102B90000831002709290BD307220346134006D02A
:102BA000093B994204D890431030074600E00F4695
:102BB00000F05CFE474D2E68BEB90021A96141F2CC
:102BC0000042454882180723DB431A40083A516007
:102BD000440701D0C01D184068612A60131A436081
:102BE0001160AB606B602E6806600024012F02DB71
:102BF0006868874207D900F0DFFF0CB900F0F4FCE9
:102C0000600713D0FEE70090686933490123002470
:102C10008842194600D32146304A2F4DAA189042C7
:102C20001D4600D82546294302D0FEE72046FEBDBA
:102C30000297284F14370124002101914568029919
:102C40008D420FD2016869B19142254600D8019D9D
:102C5000214FB9421F4600D32F46012F0746084691
:102C6000ECD1FEE7B04205D03C680834944203D86A
:102C7000002102E00024BEE70121174A944200D35C
:102C80000B46012B00D1FEE701683960029EB54278
:102C900000D2FEE7AA1B112A0BD383195D0700D0CF
:102CA000FEE781515A6046603B600A4949680091DD
:102CB00035460099491B074B59609A68914200D2EA
:102CC00099600121C9070D43002122C0D868401C2A
:102CD000D86090E73001002098060020FF13000024
:102CE00010B50446083C2260021F0124240614602B
:102CF00002460C3A1E4C14600246103A1D4C1460F9
:102D00000246143A1C4C14600246183A1B4C1460DC
:102D100002461C3A1A4C14600246203A13600246DE
:102D2000243A184B13600246283A174B13600246A8
:102D30002C3A164B13600246303A154B136002468C
:102D4000343A144B13600246383A134B1360024670
:102D50003C3A124B13600246403A114B1360024654
:102D6000443A4323DB4313604838016010BDC0463A
:102D70006D2B000812121212030303030202020257
:102D80000101010111111111101010100909090997
:102D900008080808070707070606060605050505CB
:102DA00004040404F0B50146414EB0680007800FEA
:102DB000404B414C022809D001280CD048B930685A
:102DC000400F3EA2105C2346C34004E047F6005388
:102DD00001E048F20003B068B2689204520F39A5CE
:102DE000AF5C0006000F39A2105C3668002204298F
:102DF00055D81D46C5402846F8408F0001A4E41967
:102E0000A746C04600F015B800F006B800F013B8A9
:102E100000F013B800F002B82A4640E031490A68D1
:102E200092070246224D3AD00A6803200240012A46
:102E300016D11A4633E0024631E03001400F27A197
:102E40000C5C28490E6840F2001040F200158035F5
:102E50002E421AD00B682B40834213D0154B14E03E
:102E60000C68044048F20002032C18D00A680240A3
:102E7000022A16D128680001400F401C0E49B1FB00
:102E8000F0F20CE00C48B0FBF4F30868C004000F4B
:102E90000B2804D8400014A1085AB3FBF0F21046E6
:102EA000F0BD096801400129C3D00023C1E7C04635
:102EB0000010024000127A00006CDC0200010203E4
:102EC00004050607000000000102030400000000E2
:102ED00000000000010203040607080901020304C0
:102EE000050607088C1002400100020004000600DD
:102EF00008000A000C0010002000400080000001C3
:102F0000072149070840124A13688B4318181060BC
:102F10007047C0461F21014001228A4080090C49A8
:102F200043581343435070471F21014001228A40F8
:102F30008009074943589343435070471F2101407C
:102F400001228A4080090249435813434350704785
:102F50000010024080B501460920C006FFF7ECFAD8
:102F6000411E884180BD0000F8B50446084D094E59
:102F700027785FB12846314600F0C9FA0028F9D019
:102F80002846394600F098FA641CF1E7F8BDC046BF
:102F90000038014007070000B0B5044600F064FBAC
:102FA0000F4D2878A04206D02C706868401C6860DD
:102FB00000F07EFD2861B0BC01BC864600F05EBB1F
:102FC00010B5044600F050FB054824300C21224681
:102FD000FEF7B8FA10BC01BC864600F04FBBC046F5
:102FE00028000020F0B587B02C4C2D4D2046A84776
:102FF000601CA847A01CA8477548A847844E002419
:10300000304621464EF20002FFF762FA0221254DBA
:10301000304622464EF20003A8470125224F304693
:1030200021462A464EF20003B8472048C0272946C9
:1030300022463B461B4EB0471C4821462A463B468B
:10304000194EB0470920C60630462946224640F2AE
:103050000013144FB847304621462A4640F2001369
:10306000114DA847914D284600F00AF9032005901C
:1030700040F20070029040F20010001D0090019498
:10308000069440F20020039004946946284600F01C
:1030900047F9284600F00EF807B0F0BD110D00000A
:1030A000152F0008452500088D2500080008004858
:1030B00001617047016840220A430260704742681C
:1030C00041F200039A434260194042680A43426059
:1030D00070470000F8B514460F4605464C4840F6C8
:1030E0000001FFF723FA03204A4EB047380CC0B264
:1030F000B047380AC0B2B047F8B2B047A52720049D
:1031000006D0384600F088F828706D1C641EF6E77B
:103110003F4840F60001F8BC04BC9646FFF709BAE8
:1031200070B588B02948FFF7F5FE2948FFF7F2FE91
:10313000374D0024284621464EF20002FFF7C8F919
:103140000221284622464EF20003FFF7FBF9012632
:103150002846214632464EF20003FFF717FA28466A
:103160003146224640F60003FFF7ECF92846214697
:10317000324640F60003FFF709FA284640F6000100
:10318000FFF7D7F9494D284600F07AF8069440F247
:1031900000700390029420200790059440F20410E0
:1031A0000190FC30049001A9284600F0B9F82846A7
:1031B00041F20001FFF783FF07212846FFF778FF60
:1031C0002846FFF777FF08B070BDC046120D00001B
:1031D0000D110000F8B50E4840F60001FFF7A6F902
:1031E0009F200C4CA047A5252846A0470646284608
:1031F000A04707462846A0470546054840F6000177
:10320000FFF797F93004390208184019F8BDC04695
:10321000000400481932000870B50546234C022608
:103220002046314600F044F80028F9D020462946CF
:1032300000F01AF801252046294600F039F8002848
:10324000F9D0204600F002F8C0B270BD6349884250
:1032500001D1C86805E04168C90401D4C06800E034
:10326000007B80B27047C0465C4A904201D1D16079
:1032700070474268D20401D4C1607047017370473F
:1032800010B5094C5549884203D00849884209D1F4
:10329000641C2046FFF752FE204610BC02BC8E463E
:1032A000FFF742BE10BDC0460C09000000380040C8
:1032B000826840F20020814220D040F200408142EA
:1032C0001CD040F20060814218D040F600008142DC
:1032D00011D041F2000081420DD041F60000814240
:1032E00009D00120430799420FD00007814212D133
:1032F00041F600000BE041F6000001E040F2006002
:103300000240511A48424841704740F20060024072
:103310005042504170470A40501E8241104670474B
:10332000F0B505680668426840F204134CF20044A8
:103330002A4FB84225D143F2400215400A681A408C
:103340002A434D6825401543FC33CA681A402A4376
:103350000B6980241C4014434A6903231340234310
:103360008C69382222401A43896840F600030C46D3
:103370001C4340F60075AC4227D119400A43012195
:1033800024E043F640052E400D681D4035434E684D
:1033900026402E43FC33CC681C4034430B69802507
:1033A0001D4025434B6903241C402C438B69382561
:1033B0001D40254305600A4B1A40896840F600739A
:1033C0000B4099184160012101E000210260C269AF
:1033D00040F600039A43C2610846F0BD0030014048
:1033E000FFF0000007490A6841F2000313430B6035
:1033F0004A689207FCD588604868C007FCD0886896
:103400007047C04604380040B0B502460120002392
:103410000C7834B11578A54202D1491C521CF7E74B
:103420001846B0BDB0B50246012000230C7834B177
:103430001578A54202D1491C521CF7E71846B0BDC9
:1034400003490968084003210840411E884170472C
:103450001C000140EFF3108072B67047B0B50D4606
:1034600004462548844207D02448844202D0244898
:10347000844205D1022000E00420FFF793FC00E025
:1034800000202168090405D469084018B0FBF5F054
:1034900080B209E0690840004018B0FBF5F003492C
:1034A00001400007400F4018E060B0BDF0FF000091
:1034B000416A034808407047014A0A4082627047E7
:1034C000FF01000010B50B4C0B49884208D00B4996
:1034D000884204D00A4988420BD1641C00E0641D74
:1034E0002046FFF72BFD204610BC02BC8E46FFF79E
:1034F0001BBD10BD0E09000000380140004800400F
:1035000000440040016801220A43026070471F2204
:103510000A4089090958D1400120084070471F22FC
:103520000A400123934089090A581A430A507047F8
:103530001F220A400B049B0D1B58D3408A0D1258C2
:10354000C802C00EC2401A400120104070470268F5
:1035500001239A430260026840F200639A430260CA
:10356000194002680A4302607047026804239A43C4
:103570000260194002680A43026070470268012332
:103580009A430260426843F200039A43426089070B
:10359000890C42680A4342607047026808239A43D4
:1035A0000260194002680A43026070470268012302
:1035B0009A430260026841F200039A430260194094
:1035C00002680A4302607047416882688A605160FD
:1035D00001694B68834200D14A6000220261086899
:1035E000401E0860704770470A20FDF7ACFD72B6B8
:1035F000FEE70520FDF7A7FD72B6FEE780F3108811
:103600007047002102460832CB430EC00260426080
:103610007047002101617047B0B50C68621C07D08B
:1036200002460832134652681568A542FAD901E0ED
:1036300003695A68916008614A608B60596001684B
:10364000491C0160B0BD0000FF200104054A136859
:103650000B4313600006116801431160101F002125
:103660000160704720ED00E072B6B4480168491C63
:103670000160BFF34F8FBFF36F8F7047AF48016892
:1036800029B10168491E0160006808B17047FEE772
:1036900062B67047F8B590B10446083C2B4E012540
:1036A0000022B442294600D31146294BF718BC42E8
:1036B0002B4600D813461943012901D1FEE7F8BD76
:1036C000061F3068002800D4FEE7216801B1FEE73C
:1036D00001210091C9078843306000F0C7F83368C2
:1036E0001C484168C91841600246143211461268EC
:1036F000A242FBD306461436B1420AD0B94201D8E1
:1037000000260096114EB14200D3009D012D00D13C
:10371000FEE74D684E19A64202D15B194B600C467C
:10372000E518954206D10568AA4203D05568EB1802
:10373000636012682260A14200D00C600169491CDC
:103740000161F8BC01BC864600F036BA980600203C
:10375000FF130000300100208069801E0078662879
:1037600001D100F021B8FEE70748042101600021E3
:1037700081600649096840F2E832B1FBF2F1491E66
:10378000416007210160704710E000E02400002044
:103790000120000703490860BFF34F8FBFF36F8F0D
:1037A0007047C04604ED00E0064A1168086806C884
:1037B000022181F31488203080F30988BFF36F8FD2
:1037C00010470000D005002005480068006880F31D
:1037D000088862B6BFF34F8FBFF36F8F66DF00BFFD
:1037E00008ED00E080B568B1F1494A68521C4A60B2
:1037F0004968012905D1FFF779F900F0DDF908B131
:1038000080BDFEE780BC01BC8646FFF7C1BFC04655
:1038100070B586B003AD681D0721FCF7A4FC002439
:103820002C710F480390E24E304610300094019006
:103830000C4860222946234600F082F8012802D075
:10384000401C08D1FEE772B6E043B0600120F06092
:10385000346000F051F80448006806B070BDC046FE
:1038600049444C45392B0008903D0008D048416838
:10387000491C41607047C046B0B5CD4C606810B17E
:103880000120E061B0BD0020E061CA4D28682968D0
:103890000968006B2A68126B91420CD902681549BD
:1038A0008A4208D142688A4205D182688A4202D19E
:1038B000C068884204D0296828683431FFF799FE2F
:1038C000A06914214143F24A51180A6822B910B183
:1038D0001439401EF9E7FEE74A6852684A600B4611
:1038E0000833934201D1CA684A60D1682960A06157
:1038F0002868B0BDA5A5A5A510B50D480068C16A8A
:103900000C4A914200D0FEE7806B0B49884200D000
:10391000FEE7FFF799FEFFF727FF08480024046041
:10392000FFF752FFFFF7A8FFFFF720F9204610BD71
:1039300008ED00E029020008E5010008981A0020BF
:10394000F0B585B0039314460D46029097003846B3
:10395000FFF71CF9064600200490C0434EB30190C7
:1039600000944820FFF712F9F8B104460A98019034
:1039700048212046FCF7F7FB2663A522304639464E
:10398000FCF7EAFB206B65B13421402906D06A18A8
:10399000343A12786254491C002AF6D13F21049A25
:1039A00062540199052906D3FEE73046FFF772FEFF
:1039B000019805B0F0BDC019051F07208543E162DD
:1039C000261D30460F46FFF724FE20461830FFF72D
:1039D00020FE0520C01BA06164622461216B284683
:1039E000029A039BFFF77CF92060281A8010009947
:1039F000814215D90B9800B10460FFF735FEA34D45
:103A00006869401C6861A34A1068049F48B1E8686F
:103A100028BBE06A1168C96A814220D814601EE0A0
:103A2000FEE714606869012819D10396984E642F47
:103A300004D0F019FFF7E5FD1437F8E72F464837B3
:103A40001A49384688472E465C363046174988471B
:103A500028463430154988476F62AE62039E286B52
:103A6000401C2863E06AA969884200D9A861142132
:103A7000414387484258521C425040184168A16057
:103A80008A68E260606156608E60FFF7F7FDE96862
:103A9000012000298DD0E26A7E490968C96A9142F5
:103AA00087D20446FFF774FE204682E703360008FB
:103AB000764800687047C046FEB5744C606820B117
:103AC000206A401C20620020FEBD2068451C256045
:103AD0000CD3606A006800B1FEE7606AA16A6162A7
:103AE000A062E06A401CE062FFF732F8A0688542FD
:103AF00001D200234BE000200290C0430190606A95
:103B00000068002840D0606AC068C6687068854256
:103B10003BD32A46371DB068F368836058607069EC
:103B20004168B94200D143600168491E0160B06A32
:103B300070B1F169336A8B6059603146183145685C
:103B40008D4200D143600021B1620168491E0160CD
:103B5000F06AA169884200D9A061142141434C4D0B
:103B60006B585B1C6B5069184B68B3609D68F560BF
:103B700071616F609F6047490968C96A884201D9CD
:103B8000012002901546BAE70198A060029B4148C7
:103B90000068C06A142141433D4840580122012871
:103BA000104600D81846E16900298DD01046FEBDA8
:103BB000C0000020D0050020F8B5FFF755FD334DBB
:103BC000686848B16868401E68606868002420B171
:103BD000FFF754FD2046F8BDFEE768690028F7D0DE
:103BE00000222B4900926B6BC3B32A6CD268D36955
:103BF000166A9E60736017461837936A5C68BC4209
:103C000000D15E60009890621C68641E1C6093681E
:103C1000D7689F607B60131D566974689C4200D111
:103C200077603468641E3460D66AAC69A64200D9F5
:103C3000AE61142474430F597F1C0F510C1967682F
:103C40009760B868D06054614360BB6011480068F9
:103C5000C06A8642C7D90120E861C4E70AB1FEF70D
:103C600077FF2E6A46B10127FFF726FF00B1EF610B
:103C7000761EF9D100202862E86928B1054800685D
:103C8000FFF786FD0124A3E70024A1E7C000002080
:103C9000D4050020D005002002E008C8121F08C18A
:103CA000002AFAD170477047002001E001C1121FBD
:103CB000002AFBD17047000000000048000C0048BB
:103CC000000C0048000400480080000002000000D2
:103CD00008000000100000003F065B4F666D7D0786
:103CE0007F6F0705050507020602020707010704A3
:103CF0000707010701070505070101070407010779
:103D00000704070507070102020207050705070761
:103D10000507010754494D453D000D0A4F4B204111
:103D2000490D0A00434F53543D005B30385D206419
:103D30007261772065787465726E616C20666C6163
:103D40007368206261636B67726F756E642E2E2ECE
:103D50000D0A005B30385D206261636B67726F75BE
:103D60006E64206472617720646F6E650D0A005B7B
:103D700030385D2064617368626F617264207265BF
:103D80006164790D0A002D2D2D0055534400520019
:103D900004000000B83D000800000020780000008A
:103DA000983C0008303E000878000020281E0000E3
:103DB000A83C000800000000FFFFFF02FFFFFFFF1C
:103DC000FFFFFFFFFFFF0000FFFFFFFFFFFFFFFF01
:103DD000FFFFFFFFFFFFFFFFFFFFFFFF006CDC02A5
:103DE00000000000000000000000000000000000D3
:103DF00000000000554E4B4E4F574E000000000093
:103E0000000000004E4F4E45000000000000000082
:103E100000000000000000000000000002000000A0
:103E20000000000001000000000000000000000091
:04000005080000DD12
:00000001FF
