:020000040800F2
:1000000010050020F1000008DD060008D9060008F0
:1000100000000000000000000000000000000000E0
:100020000000000000000000000000001F070008A2
:1000300000000000000000001B0700087107000816
:100040001D0100081D010008000000001D0100083E
:100050001D0100081D0100081D0100081D01000808
:100060001D0100081D0100081D0100081D010008F8
:100070001D0100081D0100081D0100081D010008E8
:100080001D0100081D0100081D0100081D010008D8
:100090001D0100081D0100081D0100081D010008C8
:1000A0001D0100081D0100081D0100081D010008B8
:1000B0001D0100081D0100081D0100081D010008A8
:1000C000000000001D0100081D0100081D010008BE
:1000D0001D0100081D0100081D0100080348854698
:1000E00000F030FA00480047090D00081005002014
:1000F0000B4802680B480240120C92020A4940F277
:10010000000001C1121F002AFBD10848804708489F
:100110000047FEE7FEE7FEE7FEE7FEE7FEE700003A
:10012000E00BFF1F0000FFFF000000207907000820
:10013000DD00000803460B439B0703D009E008C914
:10014000121F08C0042AFAD203E00B780370401C87
:10015000491C521EF9D27047F0B51FB40646002064
:1001600082B005464024019100901BE0019922468F
:100170000F46304600F02DFA049A059B801A9941EB
:1001800010D310461946224600F013FA361A8F4152
:100190000197224601200021009F00F00AFA38183A
:1001A0004D4100902046641E0028DFDC019B009832
:1001B0002946324607B0F0BDF0B50746084658401C
:1001C00087B0C00F049048000E4659004008490807
:1001D000BC1A884105D2384631461E4617460B46A2
:1001E00002465800400810434CD0300D03904005A3
:1001F0005900400D490D0590401A0290402872DACE
:1002000018030121000B090508430190049800928E
:10021000002805D0019952420020884100920190A7
:10022000029840210A1A0199009800F0C2F9054687
:100230000C466B4607CB00F0DDF9C0197141039AFB
:100240000E0D0023D71756401A467A40164344D065
:10025000049A002A2DD0029A012A039A15DC12056D
:10026000C01A914101263605001C7141D20F059E2E
:10027000D2070093019202962A46234600F0DAF94B
:1002800007B0F0BD38463146FAE71605224A0F4658
:10029000B218C01AB74101210905001C4F410018CE
:1002A0007F41114618187941E20F10436D196441DE
:1002B00013E0E2076D0815436408C2071443039A6C
:1002C00001261205C01A91413605001C7141CE0766
:1002D000400830434908C01851412A46234600F0DF
:1002E0009CF9CDE7FFE7049801224000C117121ADC
:1002F00000238B4104983146C417381AA141EEE718
:1003000030B40124E407634030BC55E730B4012425
:10031000E407614030BC4FE70000E0FFF0B51FB4D8
:1003200088B00B990998002448400999C00F4900EA
:1003300049080991C0070B990090490049080B91A1
:1003400009990898A64608431CD00B990A980843B7
:1003500018D0099801244000420D4800410D099829
:1003600024050003000B204309900B980003000BA9
:1003700020430B9050181C4940180022019014464D
:10038000104605E0002001460DB0F0BD032801DA5B
:10039000034600E003239C46C11A0AAE0AE05F0050
:1003A00008ADED5B4F00F75B7D430027AA187C4149
:1003B000491C5B1E6145F2DD410004AB5A52210429
:1003C000120C0A43240C401C0828DFDB0198029021
:1003D0000099704601910090059B049A0799069830
:1003E00000F028F9D0E700000DFCFFFFF0B50C4647
:1003F0005C4085B0E40FE40703944C0000266408D9
:1004000059009446490802460296224321D062468A
:100410000A431ED06200570D4A000E032303550DF8
:10042000012402462C492405781B1B0B360B40186F
:1004300023432643614600901C46501AB44103D31F
:100440000098401C009002E0921800985B41002840
:1004500003DA0020014605B0F0BD002001210905A6
:100460000746864611E064461D46141BB54106D377
:100470006546521BB341744607430C43A646CD075D
:1004800040084908284392185B4105460D43EAD1CC
:100490001046184313D06046194650407140084337
:1004A00006D06046101AB34106D20122002306E0AE
:1004B00000220123DB0702E00122D24353100098FF
:1004C00074460105381C6141029C039D0019694175
:1004D00000F0A3F8BFE70000FD0300004A00090395
:1004E0000123090B1B0519430A4B10B5520D9A4203
:1004F00002DA0020014610BD064B34339A4203DC79
:100500009A1A00F066F810BD034BD21800F051F8AB
:1005100010BD0000FF030000CDFBFFFF10B5002958
:1005200004DB0124E40740428C412146002B04DB1C
:100530001C460123DB075242A341994200D190425D
:1005400010BD00001CB509480090094801900546FF
:100550000126009C05E0E36807CC33430C3C984738
:100560001034AC42F7D3FFF7BDFD00000C89000842
:100570002C89000870B50446002903D000202022F1
:10058000012310E0002801D00020C043C046C0462F
:100590000DE02546D5408D4205D30D469540641BA0
:1005A0001D46954040191546521E002DF1DC21468E
:1005B00070BD10B5202A04DB0146203A914000208E
:1005C00010BD914020239C1A0346E34019439040FC
:1005D00010BD10B5202A04DB0846203AD040002187
:1005E00010BD0B46D340D0402024A21A91400843AE
:1005F000194610BD10B5202A06DBCB170846203A55
:100600001041C1170B4306E00B461341D040202494
:10061000A21A91400843194610BD10B5002B08DA04
:100620000024401C614192185B411A4301D14008EB
:10063000400010BDF0B51FB482B005460C0003D0D9
:10064000084601F04FFB02E001F04CFB203002466F
:10065000009021462846FFF7ACFF049B059A04460C
:100660000F4618431143084314D0184610431BD0BB
:10067000009840210A1A18460599FFF7AAFF054677
:100680000E46009A05990498FFF793FF084305D09A
:10069000012004E02046394607B0F0BD0020C11714
:1006A00005430E432C43374300990E986305401AC7
:1006B0007905E40A00220C43FD0A0A3002D5002025
:1006C0000146E9E70105101969410C9C0D9D0019CF
:1006D0006941FFF7A2FFDFE7FFE7FEE780B50120F2
:1006E00001F0E4F8012807D1FFE7FFE7FFE7012069
:1006F0000028FBD1FFE70FE0022001F0D7F8012826
:1007000007D1FFE7FFE7FFE701200028FBD1FFE764
:1007100001E0FFE7FEE7FFE780BDFFE7FEE7FFE759
:10072000FEE7000080B584B002900298401E000EE3
:1007300018B1FFE70120039011E00298401E09491B
:10074000086000200190C043032100F051F8019897
:1007500005490860054A072111600390FFE70398E7
:1007600004B080BD14E000E018E000E010E000E01C
:1007700080B500F08DF880BD80B582B0164908685C
:10078000012210430860FFE7134800688007002833
:1007900001D4FFE7F8E71149086803229043086095
:1007A0000D4A10680D231B049843106008680C4A1A
:1007B000104008600B4908680B4A104008600B495C
:1007C00000200190086001F089F801990120C0061D
:1007D00000F01EFB02B080BD001002400810024075
:1007E0000CC7FF888C1002407CE0FFFF0C10024019
:1007F00070B582B0024601A80270009100214056F7
:10080000002816D4FFE7002401A908570322D34388
:100810001840174A805809578C07E50EFF24AC4052
:10082000A043009CA401E4B2AC402043194088508E
:100830001AE001A908780F24204008380322D34386
:1008400018400A4A8058002549578D07EE0EFF25AB
:10085000B540A843009DAD01EDB2B540284321400D
:10086000083919408850FFE702B070BD1CED00E068
:1008700000E400E081B0009000980A490860FFE7BA
:100880000848006808B1FFE7FAE701B07047C046C2
:100890000448006828B1FFE702490868401E086064
:1008A000FFE770470800002080B582B001900091FA
:1008B00001A801783B4801F0DBF8FFE7394804491B
:1008C00001F027F908B9FFE7F8E7019802B080BD09
:1008D0000707000010B588B0079000200690079821
:1008E0003049884203D1FFE70020069001E0FFE78E
:1008F000FEE72D4800F0D2FB069841002B48405AF5
:1009000000F0CCFB0698810029480090425809204D
:10091000C00603900121059100F09EF80398059907
:10092000069A9300234A0292D25800F095F8009953
:100930000398059A069B9B00CB580221019100F079
:1009400003F900990398059A069B9B00CB58002158
:10095000049100F045F90199029B0398059A069CC1
:10096000A4001B5900F0F0F8029B03980499059A23
:10097000069CA4001B5900F033F9079801F086F893
:100980000798E121490201F013F80798042101F0CA
:10099000E1F80798082101F0EDF8079801F0B0F8A8
:1009A00008B010BD00380140110D0000F42500080A
:1009B000FC250008F825000810B586B005AC0294A7
:1009C0002070207841001348405A00F067FB2078DF
:1009D00082002048049080581D4903918B580121C2
:1009E00001910022009200F0AFF80099019A039B58
:1009F00004982478A40000591B5900F0F1F8029AD9
:100A0000039804991278920080588958886206B039
:100A100010BDC0460026000881B00146684601703E
:100A2000007882000A4880580A498958886201B0D3
:100A30007047C04681B00146684601700078820068
:100A40000348805803498958886101B07047C046FF
:100A5000082600081826000886B005900491039225
:100A60000598006A01900598406A009002A900204C
:100A70000880FFE702A80088072820D8FFE702A81F
:100A8000018803A80088C840C00790B1FFE702A80A
:100A9000018889000F2213468B40019999430191E7
:100AA000049911400088800081400198084301901A
:100AB000FFE7FFE70298401C02A90880DAE702A9D5
:100AC00008200880FFE702A800880F2822D8FFE747
:100AD00002A8018803A80088C840C007A0B1FFE7AA
:100AE00002A80188890020390F2213468B40009903
:100AF000994300910499114000888000203881407A
:100B0000009808430090FFE7FFE70298401C02A905
:100B10000880D8E70198059908620098059948620D
:100B200006B0704782B00190009168460088019934
:100B3000886202B0704782B00190009168460088D8
:100B40000199886102B0704787B0069005910492C0
:100B500003930698006801900698C068009002A967
:100B600000200880FFE702A800880F282FD8FFE7A1
:100B700002A8018803A80088C840C00708B3FFE79F
:100B800002A801884900032213468B40019999432A
:100B90000191059B1340018849008B40019919433D
:100BA00001910188490013468B40009999430091B7
:100BB000049911400088400081400098084300904B
:100BC000FFE7FFE70298401C02A90880CBE70198E5
:100BD0000699086000980699C86007B07047000041
:100BE00010B586B0059004A80170039202930078B6
:100BF000C00738B1FFE702A802880599486810438A
:100C0000486008E00298C2431A48024305994868C0
:100C100010404860FFE705988068009001A9002017
:100C20000880FFE701A800880F281ED8FFE701A869
:100C3000018802A80088C840C00780B1FFE701A86A
:100C40000188012213468B40009999430091039932
:100C5000114000888140009808430090FFE7FFE7BB
:100C60000198401C01A90880DCE70098059988607C
:100C700006B010BD0000FFFF80B586B0FFE7002082
:100C80000190FFF7D7FE01200290FFF7C5FE02207A
:100C90000390FFF7CFFE03200490FFF7BDFE9620E0
:100CA0000590FFF7E7FD0198FFF7B6FE0298FFF702
:100CB000C1FE0398FFF7B0FE0498FFF7BBFE05984E
:100CC000FFF7D8FDDBE780B584B000200090FFF788
:100CD00073FE01200190FFF76FFE02200290FFF7E4
:100CE0006BFE03200390FFF767FE0098FFF794FE6A
:100CF0000198FFF791FE0298FFF78EFE0398FFF729
:100D00008BFE04B080BD000080B586B00020059049
:100D100000F03AFEFFF7D7FF3148FFF7DBFD00F0A8
:100D200009FB304800F0CEFF2F4801682F4800F043
:100D3000C9FF00F08BFB049004992D4800F0C2FF1E
:100D400004982C49884207D0FFE72B48294900F036
:100D5000B9FFFFF791FFFFE7284800F0B3FF00F06D
:100D60006FFF30B9FFE7264800F0ACFFFFF784FFC4
:100D7000FFE7244800F0A6FF00F00CFF30B9FFE7C2
:100D8000214800F09FFFFFF777FFFFE71F48002192
:100D900000F098FFFFE700200090FFF74BFE0120D6
:100DA0000190FFF747FE02200290FFF743FE032069
:100DB0000390FFF73FFE7820FFF75CFD0098FFF7F8
:100DC0002BFE0198FFF728FE0298FFF725FE0398F7
:100DD000FFF722FE40F27C10FFF74CFDDBE7C04638
:100DE000003801401D270008088900084C2700082A
:100DF0008D2600081540C800A326000828260008F4
:100E0000F42600084D26000808270008C62600081A
:100E100082B00190009101980099044A1140084362
:100E200003490860BFF34F8F02B0704780FFFF1F78
:100E300008ED00E080B59EB01DA9087000211B914F
:100E4000824812908248119010910F910E900D914E
:100E500080490C9180490B9180490A910990804901
:100E600003A81822FFF766F97E4800680C210840A5
:100E700080081C901C98029040B1FFE7029801285E
:100E800011D0FFE70298022810D013E09E480068B6
:100E9000400F149014990BA8405C13901399734859
:100EA000C8401A900AE070481A9007E047F60050D0
:100EB0001A9003E048F200001A90FFE769480168C1
:100EC000C9B209091491149A0FA9895C13911A994E
:100ED000139AD1401991006843F600010840C00AF6
:100EE000149014990DA8405C139019981399C84058
:100EF000189085480068072149060840400E149064
:100F0000149909A8405C139013995848B0FBF1F06C
:100F100017901DA800780190042800D991E001994C
:100F20008A0001A08018874600F008B800F009B8D0
:100F300000F00AB800F00BB800F03DB81A981B900A
:100F400080E019981B907DE018981B907AE0484843
:100F50000068C005800F18B9FFE71A98169010E0D6
:100F60004348006840F28011084040F20011884276
:100F700003D1FFE71798169002E03B481690FFE771
:100F8000FFE73B48006841F600610840400A1490C2
:100F900014980B280BD8FFE71498410003A8405A77
:100FA000139016981399B0FBF1F01B9002E000200B
:100FB0001B90FFE746E02E480068800718B9FFE75E
:100FC000189815903AE02A48006803210840012843
:100FD00003D1FFE71A9815902FE0254800680321F8
:100FE0000840032804D1FFE748F20000159023E0F1
:100FF0001F4800680321084002280ED1FFE742483D
:101000000068072149060840400E14901498411CBE
:101010001648B0FBF1F015900DE01548006803216B
:101020000840012803D1FFE71A98159002E000203C
:101030001590FFE7FFE7FFE7FFE7FFE715981B9035
:1010400000E0FFE71B981EB080BDC04606070809F8
:101050000102030404050607000102030506070850
:10106000DC2500080810024000127A00006CDC0247
:101070008C10024082B00190234908680090009AC9
:101080000720400782430092019A024000981043D3
:1010900000900098086002B07047C04681B00146D9
:1010A0006846018000881F220146114001238B40C1
:1010B0008109154A88581843885001B07047C046C6
:1010C00081B001466846018000881F220146114018
:1010D00001238B4081090C4A88589843885001B0FD
:1010E0007047C04681B001466846018000881F22D3
:1010F0000146114001238B408109034A8858184357
:10110000885001B07047C0460010024082B0019084
:101110006846018000880199086102B0704781B07B
:1011200000900099086840221043086001B07047A1
:1011300083B0009101460098029101A90880029BAA
:101140005A6841F2000082435A600A8802400299BC
:1011500048681043486003B07047000080B584B011
:101160000390029101A80280E24840F60001FFF7D7
:10117000D9FC032000F0C0F902A80090807800F0AC
:10118000BBF90098407800F0B7F90098007800F0BB
:10119000B3F9FFE701AA1088411E118048B1FFE7AB
:1011A000A52000F0A9F9039908700398401C03904A
:1011B000F0E7F34840F60001FFF7BDFC04B080BD46
:1011C00070B58EB00D900C910BA90A800AAC00236B
:1011D000237009AA137008A8037007AD2B7006AE20
:1011E00033700CAB1B780370089E40F200139B1BFE
:1011F0002B704B78237009781170007848BBFFE79B
:101200000AA8007838B9FFE70D980C990BAA128844
:1012100000F0E6F81CE0FFE70AAA1078411E117002
:1012200078B1FFE70D980C9940F20012059200F09A
:10123000D7F805990C9840180C900D9840180D900F
:10124000EAE70D980C9909AA127800F0C9F8FFE7AF
:101250006DE00AA8007860BBFFE709A8007807A93D
:10126000097888421DDDFFE709980799401A06A909
:10127000049108700D980C9907AA0392127800F057
:10128000AFF80398049A03780C99C9180C91017867
:101290000D9840180D900D980C99127800F0A0F858
:1012A00006E00D980C990BAA128800F099F8FFE758
:1012B0003CE007AA029211780B98411A0BA8018012
:1012C00041780AAB1970007809A908700D980C993B
:1012D000127800F085F8029802780C9989180C9120
:1012E00001780D9840180D90FFE70AAA1078411E6A
:1012F000117078B1FFE70D980C9940F2001201923D
:1013000000F06EF801990C9840180C900D98401858
:101310000D90EAE709A8007838B1FFE70D980C991D
:1013200009AA127800F05CF8FFE7FFE7FFE70EB0CC
:1013300070BD000080B58EB02748FFF7AFFE27488C
:10134000FFF7ACFE98480390002105914EF2000291
:101350000192FFF781FB019B0398059A0221FFF799
:10136000F3FB019B0398059901220292FFF738FCD9
:1013700002990398059A40F600030493FFF7E4FBF3
:10138000029A0398049B0599FFF72AFC0398049995
:10139000FFF7D1FB0598089040F20411079140F245
:1013A000007109910C9040F200210A9120210D91C9
:1013B0000B906148069007A900F0C0F9069841F229
:1013C0000001FFF7B5FE06980721FFF79FFE06987C
:1013D000FFF7A5FE0EB080BD120D00000D1100003C
:1013E00080B584B00390029101A8028000F0CAF891
:1013F0006D4840F60001FFF795FB022000F07CF8F5
:1014000002A80090807800F077F80098407800F00B
:1014100073F80098007800F06FF8FFE701AA1088D1
:10142000411E118040B1FFE70398007800F064F896
:101430000398401C0390F1E75B4840F60001FFF77A
:101440007AFB00F07BF804B080BDC04680B588B060
:10145000002007900690059004905348039040F6B2
:1014600000010291FFF75EFB9F2000F045F8A520E8
:10147000019000F041F801460198069100F03CF817
:1014800001460198059100F037F802990246039849
:101490000492FFF750FB06980004059909020843DF
:1014A000049908430790079808B080BD80B584B0C0
:1014B000039000F067F83C48029040F6000101916B
:1014C000FFF730FB202000F017F803A80090807889
:1014D00000F012F80098407800F00EF800980078BC
:1014E00000F00AF801990298FFF725FB00F026F8B2
:1014F00004B080BD0004004880B582B001A9087026
:10150000FFE70D48022100F0A1F808B9FFE7F8E76E
:1015100001A80178084800F073F8FFE706480121A8
:1015200000F094F808B9FFE7F8E7034800F03EF848
:10153000C0B202B080BDC0460038004080B582B065
:1015400001A900200870184840F60001FFF7EAFAE8
:101550000520FFF7D1FFFFE7A520FFF7CDFF01A989
:101560000870FFE701A80078012108400128F3D0A6
:10157000FFE70D4840F60001FFF7DDFA02B080BD3D
:101580000004004880B582B00748019040F6000191
:101590000091FFF7C7FA0620FFF7AEFF0099019808
:1015A000FFF7C9FA02B080BD0004004884B0039080
:1015B00002A9002008800398BB49884205D1FFE7B3
:1015C0000398C06802A9088016E00398406841F2B9
:1015D000000108400090009840B1FFE703980C30EC
:1015E00001900198007802A9088004E00398C0687F
:1015F00002A90880FFE7FFE702A8008804B070474F
:1016000084B0039002A801800398A749884205D1BD
:10161000FFE702A800880399C86015E003984068B6
:1016200041F2000108400090009838B1FFE70398AC
:101630000C30019002980199087004E002A800881B
:101640000399C860FFE7FFE704B0704785B00490D6
:10165000039102A900200870049880680190039803
:10166000009040F2002188424DD0FFE7009840F200
:101670000041884247D0FFE7009840F2006188426D
:1016800041D0FFE7009840F60001884223D0FFE7F1
:10169000009841F2000188421DD0FFE7009841F612
:1016A0000001884217D0FFE700980121090788420E
:1016B00006D0FFE7009801214907884218D02FE0A3
:1016C00001A84078C006800F20B9FFE702A90120D9
:1016D0000870FFE72EE00398019941F600021140DF
:1016E000884204D1FFE702A901200870FFE721E04A
:1016F00001A840784007800F20B9FFE702A9012028
:101700000870FFE716E00398019940F2006211406B
:10171000884204D1FFE702A901200870FFE709E031
:1017200001980399084204D0FFE702A9012008703C
:10173000FFE7FFE702A8007805B0704786B0059084
:10174000049103A90120087005980068029002988E
:1017500043F240010840029005980068019001980A
:1017600043F64001084001900598406800900098B9
:101770004C490840009005984B4988424CD1FFE7FE
:101780000498016840F20410014002980843029056
:10179000049841684CF200400140029808430290CE
:1017A0000498C16840F2002001400298084302906A
:1017B000049801698020014002980843029004982F
:1017C000416903200140029808430290049881690E
:1017D000382001400298084302900498806840F243
:1017E000007188420BD0FFE70498806840F60071D2
:1017F000884204D0FFE703A90020087008E004989D
:10180000816840F600000140029808430290FFE71B
:101810000298059908603BE00498016840F20410C2
:101820000140019808430190049841684CF200403F
:1018300001400198084301900498C16840F20020DB
:1018400001400198084301900498016980200140FB
:1018500001980843019004984169032001400198D0
:101860000843019004988169382001400198084399
:1018700001900198059908600498816840F600700D
:101880000140009808430090009805994860FFE7E0
:101890000599C86940F600029043C86103A8007822
:1018A00006B07047FFF000000030014082B00190A8
:1018B0000948016801980840800720B1FFE76946A0
:1018C0000120087003E0694600200870FFE76846C1
:1018D000007802B07047C0461C00014080B500F09F
:1018E00001F880BD10B584B0002003900290234A17
:1018F0001168012319430624A1431160204A11688D
:1019000019431160FFF7B6FBFFE70398401C0390F3
:101910001B480068022108400290FFE7029900205E
:10192000019041B9FFE7039840F20051401A411E6F
:1019300088410190FFE70198C0070028E5D1FFE743
:101940000F4800688007002802D4FFE7FFE7FEE7A2
:101950000C4900910868086008680860086803225C
:101960009043086008680860FFE7064800680007C1
:10197000800F08B1FFE7F8E704B010BD0020024077
:10198000001002400810024080B50848006840F28C
:10199000E831B0FBF1F0FEF7C5FE10B1FFE7FFE75D
:1019A000FEE70021C843FEF723FF80BD04000020AE
:1019B00080B588B0079006910020059007980190A7
:1019C000494988420FD0FFE70198484988420FD023
:1019D000FFE70198464988420FD1FFE70420FFF74F
:1019E00029FA05900AE00220FFF724FA059005E0A5
:1019F0000220FFF71FFA059000E0FFE70798006854
:101A00000004002818D5FFE70598400006994A0809
:101A10008018B0FBF1F0029002981449084004903D
:101A200002980007400F039004A8008803A90988C2
:101A300008430799C86016E0059806994A08801877
:101A4000B0FBF1F002900298084908400490029817
:101A50000F210840039004A8008803A909880843BF
:101A60000799C860FFE708B080BDC046F0FF0000DE
:101A700082B00190684601800088034908400199BE
:101A8000886202B07047C046FF01000080B586B092
:101A90000590059804901449884212D0FFE70498F5
:101AA0001249884215D0FFE704981149884218D19D
:101AB000FFE712480390FFF715FB0398FFF700FBC1
:101AC00010E00D480290FFF70DFB0298FFF7F8FABF
:101AD00008E008480190FFF705FB0198FFF7F0FACE
:101AE00000E0FFE706B080BD004400400048004031
:101AF00000380140130900000F0900000E09000022
:101B000081B000900099086801221043086001B07C
:101B1000704784B0009101460098039102A90880A3
:101B200001AA0020107003980A8892098058098839
:101B30001F221140C840C00720B1FFE701A90120C2
:101B4000087003E001A900200870FFE701A80078F1
:101B500004B0704782B001900091019A116804208E
:101B600081431160009A024001990868104308609F
:101B700002B0704782B001900091019A116808206C
:101B800081431160009A024001990868104308607F
:101B900002B0704780B584B000200290FFE7029841
:101BA0004649096888423FD2FFE7444800680299E5
:101BB000401A0190019840F20111884204D3FFE7D6
:101BC00040F200100190FFE7029901A802881A482C
:101BD000FFF7C4FA00200090FFE7009801998842BF
:101BE0001DD2FFE7009A1448805C02998A18344994
:101BF000895C88420ED0FFE70298009A81180E484F
:101C0000825C2F48435C0D4800F05CF803A900207B
:101C100008700DE0FFE70098401C0090DDE7019997
:101C2000029840180290BAE703A901200870FFE764
:101C300003A8007804B080BD0C0000205C260008DA
:101C400080B584B0002001901C490968029103907E
:101C5000FFE70398029988420AD2FFE70398FFF74B
:101C600025FCFFE7039841F2000140180390F0E7DC
:101C7000FFE701981149096888421BD2FFE70F4826
:101C800000680199401A0090009840F201118842C2
:101C900004D3FFE740F200100090FFE701990848E5
:101CA00040186A461288FFF78BFA0099019840188D
:101CB0000190DEE7012004B080BDC046088900081D
:101CC0006C2700080FB410B503A9044B044A02980E
:101CD00000F0E8F810BC08BC04B01847A9080008D8
:101CE000000000202021020C01D010211046020A21
:101CF00001D010460839020901D01046091F820898
:101D000001D01046891E420801D0881E7047081A6B
:101D1000704702E008C8121F08C1002AFAD17047B4
:101D20007047002001E001C1121F002AFBD170475B
:101D3000F0B51FB486B00998089A030D002102433C
:101D400014D05148514A18185043051411980128CD
:101D500010981AD0281A401C00264D4F4D49009665
:101D600001910490002812DA444211E011980124F4
:101D700049A3012801D11098C1430698119A8460A3
:101D80000360C26041600BB0F0BD4042E4E704462E
:101D9000210500203F4A001C51410391029012E0AE
:101DA000E00707D032463B4601990098FEF7B6FAA5
:101DB0000191009032463B4610461946FEF7AEFAB6
:101DC00006460F466410002CEAD10498039B0028B5
:101DD000029A0999089806DAFEF7A0FA019B009A80
:101DE000FEF79CFA05E0FEF701FB019B009AFEF767
:101DF000FDFA04460E460022284BFEF78FFB03D85F
:101E00000020C043014607E00022254B2046314612
:101E1000FEF7D2F9FEF762FB102409E0002C0ADB82
:101E20000A220023FEF798F9079B30321A55641EE8
:101E300002460A43F2D11122641C079B121B1C1993
:101E4000119B012B03D0012308430ED10AE0084364
:101E500004D0112010900020119077E71098151AE7
:101E60006D1E0BE01098824202DD00236D1C03E022
:101E7000824201DA00236D1E002BEED006981199E4
:101E80008260C16030C07EE701FCFFFF104D0000A2
:101E9000000014400000F03F300000000000F0435C
:101EA0000000E03FFFB597B00646002518E2252860
:101EB00077D100242746FD49049400E00443761CB2
:101EC00032780120203A90400842F7D130782A2811
:101ED0000ED00222307801463039092916D80499EB
:101EE0000A235943303940181443761C0490F1E713
:101EF000189802C804911890002904DA01204003C0
:101F000004434842049002200443761C30782E2873
:101F100014D1042004437078761C2A2809D118981B
:101F2000761C80C8189009E00A214F43303FC7193A
:101F3000761C3078014630390929F5D930786C287B
:101F400010D006DC4C281AD068280ED06A2817D189
:101F500004E0742813D07A2812D110E00120400543
:101F600004430CE00121090501E0032109050C43AC
:101F70007178814203D1012000052418761C761C5B
:101F80003078119066280BD013DC58287DD009DCFE
:101F900000287BD04528F6D04628F4D047281AD10F
:101FA000A5E118E0632835D0642870D0652812D1E7
:101FB0009DE170286CD008DC6728F1D069287BD0BF
:101FC0006E280DD06F2806D1BAE073282ED0752860
:101FD00071D0782859D01A9A199990476D1C7EE1D2
:101FE0006002400F022809D003280DD00428189859
:101FF00001680DD00D60001D189070E11898EA1767
:1020000001680D604A60F6E7189801680D80F2E7F4
:102010000D70F0E718986A4601781172001D18904B
:102020000020507202A80090012005E0189802C814
:10203000189000200091C04361070DD5002101E0F8
:102040000199491C0191B94212DA8142F8DB009AE8
:10205000515C0029F4D10BE0002101E00199491CF9
:1020600001918142FADB019A0099895C0029F5D13E
:10207000019904981A9B471A21463846199A00F08C
:1020800097FA0199401945180BE04FE02CE113E055
:102090004EE0009800990078491C00911A9A19990D
:1020A00090470198401E0190401CF2D121463846CD
:1020B0001A9B199A10E137E00A2000210090019143
:1020C0006002410F022907D0189A01CA1892C2175C
:1020D0009446032908D00AE01898C01DC108C90019
:1020E00005C91891944607E000B2C2179446042926
:1020F00002D140B2C1178C4600226146944506DAEF
:102100000A460021404291418C462D2102E02105E2
:1021100004D52B216A461173012103E0E10701D0A8
:102120002021F7E7029155E00A200AE0102008E09C
:10213000102000900021042004430191082703E0AF
:1021400008200021019100906002410F022907D070
:10215000189A01CA189200229446032908D008E070
:102160001898C01DC108C90005C91891944603E01C
:1021700080B2042900D1C0B200210291210729D5E3
:102180001199702906D0009A1021019B4A401A43E8
:1021900005D00EE040216A461173012108E0614636
:1021A000014306D030216A461173119951730221FF
:1021B0000291009A0821019B4A401A430AD16146C4
:1021C000014301D1610705D530216A461173012110
:1021D0007F1E02911199582904D035A10E910DA9A5
:1021E0000D910DE037A1F9E76146019B009AFDF7DB
:1021F000B3FF0E9B8C469B5C0D9A521E0D92137082
:1022000061460143F0D10D9805A9081A20300190CC
:10221000600703D501200004844300E001270198F2
:10222000874201DD381A00E0002001990090411832
:10223000029809180498401A0490E00306D4214635
:102240001A9B199A049800F0B3F94519002706E083
:1022500003A81A9AC05D199990476D1C7F1C0298BB
:102260008742F5DBE0030CD521461A9B199A0498A6
:1022700000F09EF9451904E01A9A30201999904708
:102280006D1C0099481E00900029F5DC08E00D98AF
:102290000D990078491C0D911A9A199990476D1C57
:1022A0000199481E01900029F1DC63E10928010031
:1022B00030313233343536373839616263646566BC
:1022C000000000003031323334353637383941427E
:1022D000434445460000000000F05AF94519761CB9
:1022E0003078002800D0E2E528461BB0F0BD60073A
:1022F00000D406271898C01DC108C90048680A689C
:102300000831C30FDB071891190001D09CA108E028
:10231000210501D59BA104E0E10701D09AA100E0CD
:102320009AA1430011985B08109165280CD006DC37
:10233000452809D046281DD0472841D141E06628CC
:1023400018D067283CD13CE00021112F01DB11207F
:1023500000E0781C0191009008A911A8FFF7E8FCA3
:10236000139905910021119A15927F1C12980197DB
:10237000009150E00120C00703900120019008A9BE
:10238000009711A8FFF7D4FC139A14990592002224
:10239000119B009212981593059A0192002901D081
:1023A000104602E0791C40180190381A01D50198B6
:1023B00004E04042401E0090781C0190C01B029037
:1023C00043E0012F00DA01270021112F01DD112048
:1023D00000E038460191009008A911A8FFF7A8FC79
:1023E00013990591119A0021129815920091019765
:1023F00021070CD40599B94201DB019900E0019154
:10240000012904DD159A491E515C302906D0B842D5
:1024100001DA011D05DA0121029115E00199491E39
:10242000EDE7002805DC0099411800910199091A8F
:1024300003E0019A411C914200DD01910099401A8C
:10244000401C02900120C0070390200706D4029987
:102450000198814202DB0020C043029000206946BF
:10246000C87707AF012103980337C907884224D0F2
:10247000022011902B201290039800280CDA404281
:1024800003902D20129007E00A210398FEF772F8BE
:1024900030317F1E039039701199481E1190002928
:1024A000F2DC03980028EFD1791E1298087030787A
:1024B000202108404530BF1E387006A8C01BC01D33
:1024C000039010980078002800D00120019941184D
:1024D0000298C0170918039809180498401A401E5A
:1024E0000490E00306D421461A9B199A049800F040
:1024F0005FF8451910980078002803D01A9A1999A6
:1025000090476D1CE00324D521461A9B199A049824
:1025100000F04EF845191CE00098002807DB0099F0
:102520000598884203DD1598405C199901E01999D6
:1025300030201A9A904700986D1C401C0090029819
:10254000401E0290002804D11A9A2E201999904713
:102550006D1C0199481E01900029DDDC05E03878EA
:102560001A9A7F1C199990476D1C0399481E039075
:102570000029F4DC21461A9B199A0498ACE6000065
:102580002D0000002B0000002000000000000000D3
:10259000F8B5044600251E461746880404D405E015
:1025A00039462020B0476D1C641EF9D52846F8BD79
:1025B000FFB50446002581B01E46C80301D530276B
:1025C00000E02027880404D505E038460399B04789
:1025D0006D1C641EF9D5284605B0F0BD010002004F
:1025E0000400060008000A000C0010002000400053
:1025F000800000010E110000000400000002000035
:10260000110D140D140D120D0080000002000000C9
:10261000080000001000000000000048000C004806
:10262000000C00480004004857726974696E672006
:10263000436C61756465205549206173736574202E
:102640007061636B6167652E2E2E0D0A00566572F0
:10265000696679696E672E2E2E0D0A004D69736DBD
:10266000617463682061742030782530366C583A84
:1026700020666C6173683D30782530325820617374
:102680007365743D3078253032580D0A0047443266
:10269000355178782049443A2030782530366C58C6
:1026A0000D0A004552523A2065787065637465647E
:1026B0002047443235513136204944203078253086
:1026C000366C580D0A004F4B3A2061737365747372
:1026D0002073746F7265642061742065787465720C
:1026E0006E616C20666C6173682030782530366CC2
:1026F000580D0A004552523A207772697465206677
:1027000061696C65640D0A004552523A2076657223
:10271000696679206661696C65640D0A000D0A5B63
:1027200030375D20474433324332333143206578BC
:102730007465726E616C20666C617368206173737E
:102740006574207772697465720D0A004173736550
:1027500074207061636B6167652073697A653A20E4
:10276000256C752062797465730D0A0043554931F3
:10277000010064009B6100000400000093B90F0099
:102780000100010064000000FC600000F000400156
:102790000100000002000200606100000C00000067
:1027A0000000000002000000030002006C61000055
:1027B00013000000000000000200000004000200FE
:1027C0007F6100001C00000000000000020000000B
:1027D000F0008308C0034100F0008308C0034100FB
:1027E0000A008308DC006FF50A0083080A00410034
:1027F000DC006FF51400410002006FF5D8004100C5
:1028000002006FF51400410002006FF5D80041008E
:1028100002006FF51400410002006FF50200410054
:10282000D40028220200410002006FF50A00410096
:102830000A00830802006FF50200830801002822C5
:10284000D2008308010028220200830802006FF5ED
:102850000A0083080A00410002006FF502004100EF
:102860000100282201004100D000210001004100A8
:10287000010028220200410002006FF5140041000F
:1028800002006FF502004100010028220100410012
:1028900001002100CE008B2A01002100010041002F
:1028A000010028220200410002006FF514004100DF
:1028B00002006FF5020041000100282201004100E2
:1028C0000100210001008B2ACC00210001008B2A8D
:1028D0000100210001008B2A010028220200410092
:1028E00002006FF51400410002006FF50200410084
:1028F00001002822010041000100210001008B2A73
:102900000E002100030071740100210002007174A7
:1029100002002100030071740100210003007174A2
:10292000050021000300717401002100030071748F
:102930000100210003007174020021000100717484
:102940000200210003007174500021000300B76FE2
:10295000010021000100B76F040021000100B76FE2
:10296000020021000300B76F010021000100B76FD2
:10297000010021000100B76F050021000100B76FC1
:10298000010021000100B76F010021000300B76FB3
:102990002800210001008B2A0100210001008B2A60
:1029A000010028220200410002006FF50A004100E8
:1029B0000A00830802006FF5020083080100282244
:1029C000010083080100210001008B2A0E00210074
:1029D00001007174030021000100717401002100E5
:1029E00001007174030021000100717403002100D3
:1029F00001007174050021000100717405002100BF
:102A000001007174030021000100717401002100B4
:102A10000200717402002100010071745200210053
:102A20000100B76F030021000100B76F0300210010
:102A30000100B76F010021000100B76F0100210004
:102A40000100B76F030021000100B76F01002100F2
:102A50000100B76F050021000100B76F01002100E0
:102A60000100B76F020021000100B76F29002100AB
:102A700001008B2A0100210001008B2A010028227D
:102A80000200830802006FF50A0083080A00410073
:102A900002006FF502004100010028220100410000
:102AA0000100210001008B2A0E0021000100717439
:102AB0000100210001007174010021000100717406
:102AC00001002100010071740100210003007174F4
:102AD00001002100030071740500210001007174E0
:102AE00003002100030071740100210003007174D0
:102AF00002002100010071740200210001007174C4
:102B0000520021000200B76F020021000100B76FE0
:102B1000030021000300B76F010021000300B76F1D
:102B2000010021000300B76F050021000100B76F0D
:102B3000010021000100B76F020021000100B76F02
:102B40002900210001008B2A0100210001008B2AAD
:102B5000010028220200410002006FF5140041002C
:102B600002006FF50200410001002822010041002F
:102B70000100210001008B2A0E0021000100717468
:102B80000100210001007174010021000100717435
:102B90000100210001007174030021000100717423
:102BA000010021000100717407002100010071740F
:102BB00003002100010071740500210001007174FF
:102BC00002002100010071740200210001007174F3
:102BD000520021000100B76F030021000100B76F10
:102BE000030021000100B76F010021000100B76F51
:102BF000030021000100B76F010021000100B76F41
:102C0000010021000100B76F050021000100B76F2E
:102C1000010021000100B76F020021000100B76F21
:102C20002900210001008B2A0100210001008B2ACC
:102C3000010028220200410002006FF5140041004B
:102C400002006FF50200410001002822010041004E
:102C50000100210001008B2A0E0021000300717485
:102C60000100210002007174020021000300717450
:102C7000010021000300717405002100030071743C
:102C80000100210003007174010021000300717430
:102C90000100210003007174010021000300717420
:102CA000500021000100B76F030021000300B76F3F
:102CB000010021000100B76F010021000100B76F82
:102CC000010021000300B76F010021000100B76F70
:102CD000010021000100B76F050021000300B76F5C
:102CE000010021000300B76F2800210001008B2A9A
:102CF0000100210001008B2A01002822020041006E
:102D000002006FF51400410002006FF50200671920
:102D100001002822010067190100210001008B2A0F
:102D2000CC00210001008B2A0100210001008B2A28
:102D3000010028220200671902006FF50A00410015
:102D40000A00830802006FF50200830801002822B0
:102D5000010083080100210001008B2A04002100EA
:102D6000C40029B30400210001008B2A01002100C6
:102D700001008B2A010028220200830802006FF55F
:102D80000A0083080A00410002006FF502004100BA
:102D900001002822010041000100210001008B2ACE
:102DA00004002100010029B3C200E408010029B396
:102DB0000400210001008B2A0100210001008B2A60
:102DC000010028220200410002006FF514004100BA
:102DD00002006FF5020041000100282201004100BD
:102DE0000100210001008B2A04002100010029B309
:102DF000C200E408010029B30400210001008B2A6D
:102E00000100210001008B2A01002822020041005C
:102E100002006FF51400410002006FF5020041004E
:102E200001002822010041000100210001008B2A3D
:102E300004002100010029B3C200E408010029B305
:102E40000400210001008B2A0100210001008B2ACF
:102E5000010028220200410002006FF51400410029
:102E600002006FF50200410001002822010041002C
:102E70000100210001008B2A04002100010029B378
:102E8000C200E408010029B30400210001008B2ADC
:102E90000100210001008B2A0100282202004100CC
:102EA00002006FF50A0041000A00830802006FF576
:102EB000020083080100282201008308010021008C
:102EC00001008B2A04002100010029B3C200E4089C
:102ED000010029B30400210001008B2A0100210018
:102EE00001008B2A010028220200830802006FF5EE
:102EF0000A0083080A00410002006FF50200410049
:102F000001002822010041000100210001008B2A5C
:102F100004002100010029B3C200E408010029B324
:102F20000400210001008B2A0100210001008B2AEE
:102F3000010028220200410002006FF51400410048
:102F400002006FF50200410001002822010041004B
:102F50000100210001008B2A04002100010029B397
:102F6000C200E408010029B30400210001008B2AFB
:102F70000100210001008B2A0100282202004100EB
:102F800002006FF51400410002006FF502004100DD
:102F900001002822010041000100210001008B2ACC
:102FA00004002100010029B30500E408B8006FF512
:102FB0000500E408010029B30400210001008B2A68
:102FC0000100210001008B2A01002822020041009B
:102FD00002006FF51400410002006FF5020041008D
:102FE00001002822010041000100210001008B2A7C
:102FF00004002100010029B30500E408B8006FF5C2
:103000000500E408010029B30400210001008B2A17
:103010000100210001008B2A01002822020041004A
:1030200002006FF50A0041000A00830802006FF5F4
:10303000020083080100282201008308010021000A
:1030400001008B2A04002100010029B30500E408D7
:10305000B8006FF50500E408010029B30400210061
:1030600001008B2A0100210001008B2A0100282287
:103070000200830802006FF50A0083080A0041007D
:1030800002006FF50200410001002822010041000A
:103090000100210001008B2A04002100010029B356
:1030A000C200E408010029B30400210001008B2ABA
:1030B0000100210001008B2A0100282202004100AA
:1030C00002006FF51400410002006FF5020041009C
:1030D00001002822010041000100210001008B2A8B
:1030E00004002100010029B3C200E408010029B353
:1030F0000400210001008B2A0100210001008B2A1D
:10310000010028220200410002006FF51400410076
:1031100002006FF502004100010028220100410079
:103120000100210001008B2A04002100010029B3C5
:103130000500E408B800BD670500E408010029B3F4
:103140000400210001008B2A0100210001008B2ACC
:10315000010028220200410002006FF51400410026
:1031600002006FF502004100010028220100410029
:103170000100210001008B2A04002100010029B375
:103180000500E408B800BD670500E408010029B3A4
:103190000400210001008B2A0100210001008B2A7C
:1031A000010028220200410002006FF50A004100E0
:1031B0000A00830802006FF5020067190100282247
:1031C000010067190100210001008B2A0400210081
:1031D000010029B30500E408B800BD670500E40854
:1031E000010029B30400210001008B2A0100210005
:1031F00001008B2A010028220200671902006FF5E6
:103200000A0083080A00410002006FF50200410035
:1032100001002822010041000100210001008B2A49
:1032200004002100010029B30500E408B800BD67CF
:103230000500E408010029B30400210001008B2AE5
:103240000100210001008B2A010028220200410018
:1032500002006FF51400410002006FF5020041000A
:1032600001002822010041000100210001008B2AF9
:1032700004002100010029B3C200E408010029B3C1
:103280000400210001008B2A0100210001008B2A8B
:10329000010028220200410002006FF514004100E5
:1032A00002006FF5020041000100282201004100E8
:1032B0000100210001008B2A04002100010029B334
:1032C000C200E408010029B30400210001008B2A98
:1032D0000100210001008B2A010028220200410088
:1032E00002006FF51400410002006FF5020041007A
:1032F00001002822010041000100210001008B2A69
:1033000004002100010029B3C200E408010029B330
:103310000400210001008B2A0100210001008B2AFA
:10332000010028220200410002006FF50A0041005E
:103330000A00830802006FF50200830801002822BA
:10334000010083080100210001008B2A04002100F4
:10335000010029B3C200E408010029B304002100E0
:1033600001008B2A0100210001008B2A0100282284
:103370000200830802006FF50A0083080A0041007A
:1033800002006FF502004100010028220100410007
:103390000100210001008B2A04002100010029B353
:1033A000C200E408010029B30400210001008B2AB7
:1033B0000100210001008B2A0100282202004100A7
:1033C00002006FF51400410002006FF50200410099
:1033D00001002822010041000100210001008B2A88
:1033E00004002100010029B3C200E408010029B350
:1033F0000400210001008B2A0100210001008B2A1A
:10340000010028220200410002006FF51400410073
:1034100002006FF502008B2A0100282201008B2A8E
:103420000100210001008B2A04002100010029B3C2
:10343000C200E408010029B30400210001008B2A26
:103440000100210001008B2A0100282202008B2AA2
:1034500002006FF51400410002006FF50200410008
:1034600001002822010041000100210001008B2AF7
:1034700004002100010029B3C200E408010029B3BF
:103480000400210001008B2A0100210001008B2A89
:10349000010028220200410002006FF50A004100ED
:1034A0000A00830802006FF5020083080100282249
:1034B000010083080100210001008B2A0400210083
:1034C000010029B3C200E408010029B3040021006F
:1034D00001008B2A0100210001008B2A0100282213
:1034E0000200830802006FF50A0083080A00410009
:1034F00002006FF502004100010028220100410096
:103500000100210001008B2A04002100010029B3E1
:10351000C200E408010029B30400210001008B2A45
:103520000100210001008B2A010028220200410035
:1035300002006FF51400410002006FF50200410027
:1035400001002822010041000100210001008B2A16
:1035500004002100010029B3C200E408010029B3DE
:103560000400210001008B2A0100210001008B2AA8
:10357000010028220200410002006FF51400410002
:1035800002006FF502004100010028220100410005
:103590000100210001008B2A04002100010029B351
:1035A000C200E408010029B30400210001008B2AB5
:1035B0000100210001008B2A0100282202004100A5
:1035C00002006FF51400410002006FF50200410097
:1035D00001002822010041000100210001008B2A86
:1035E00004002100010029B3C200E408010029B34E
:1035F0000400210001008B2A0100210001008B2A18
:10360000010028220200410002006FF50A0041007B
:103610000A00830802006FF50200830801002822D7
:10362000010083080100210001008B2A0400210011
:10363000010029B3C200E408010029B304002100FD
:1036400001008B2A0100210001008B2A01002822A1
:103650000200830802006FF50A0083080A00410097
:1036600002006FF5020067190100282201006719A6
:103670000100210001008B2A04002100010029B370
:10368000C200E408010029B30400210001008B2AD4
:103690000100210001008B2A010028220200671985
:1036A00002006FF51400410002006FF502004100B6
:1036B00001002822010041000100210001008B2AA5
:1036C00004002100010029B3C200E408010029B36D
:1036D0000400210001008B2A0100210001008B2A37
:1036E000010028220200410002006FF51400410091
:1036F00002006FF502004100010028220100410094
:103700000100210001008B2A04002100010029B3DF
:10371000C200E408010029B30400210001008B2A43
:103720000100210001008B2A010028220200410033
:1037300002006FF51400410002006FF50200410025
:1037400001002822010041000100210001008B2A14
:1037500004002100010029B3C200E408010029B3DC
:103760000400210001008B2A0100210001008B2AA6
:10377000010028220200410002006FF50A0041000A
:103780000A00830802006FF5020083080100282266
:10379000010083080100210001008B2A04002100A0
:1037A000010029B3C200E408010029B3040021008C
:1037B00001008B2A0100210001008B2A0100282230
:1037C0000200830802006FF50A0083080A00410026
:1037D00002006FF5020041000100282201004100B3
:1037E0000100210001008B2A04002100010029B3FF
:1037F000C200E408010029B30400210001008B2A63
:103800000100210001008B2A010028220200410052
:1038100002006FF51400410002006FF50200410044
:1038200001002822010041000100210001008B2A33
:1038300004002100010029B3C200E408010029B3FB
:103840000400210001008B2A0100210001008B2AC5
:10385000010028220200410002006FF5140041001F
:1038600002006FF502004100010028220100410022
:103870000100210001008B2A04002100010029B36E
:10388000C200E408010029B30400210001008B2AD2
:103890000100210001008B2A0100282202004100C2
:1038A00002006FF51400410002006FF502004100B4
:1038B00001002822010041000100210001008B2AA3
:1038C00004002100010029B3C200E408010029B36B
:1038D0000400210001008B2A0100210001008B2A35
:1038E000010028220200410002006FF50A00410099
:1038F0000A00830802006FF50200830801002822F5
:10390000010083080100210001008B2A040021002E
:10391000010029B3C200E408010029B3040021001A
:1039200001008B2A0100210001008B2A01002822BE
:103930000200830802006FF50A0083080A004100B4
:1039400002006FF502004100010028220100410041
:103950000100210001008B2A04002100010029B38D
:10396000C200E408010029B30400210001008B2AF1
:103970000100210001008B2A0100282202004100E1
:1039800002006FF51400410002006FF502004100D3
:1039900001002822010041000100210001008B2AC2
:1039A00004002100010029B3C200E408010029B38A
:1039B0000400210001008B2A0100210001008B2A54
:1039C000010028220200410002006FF514004100AE
:1039D00002006FF5020041000100282201004100B1
:1039E0000100210001008B2A04002100010029B3FD
:1039F000C200E408010029B30400210001008B2A61
:103A00000100210001008B2A010028220200410050
:103A100002006FF51400410002006FF50200410042
:103A200001002822010041000100210001008B2A31
:103A300004002100010029B3C200E408010029B3F9
:103A40000400210001008B2A0100210001008B2AC3
:103A5000010028220200410002006FF50A00410027
:103A60000A00830802006FF5020083080100282283
:103A7000010083080100210001008B2A04002100BD
:103A8000010029B3C200E408010029B304002100A9
:103A900001008B2A0100210001008B2A010028224D
:103AA0000200830802006FF50A0083080A00410043
:103AB00002006FF5020041000100282201004100D0
:103AC0000100210001008B2A04002100010029B31C
:103AD000C200E408010029B30400210001008B2A80
:103AE0000100210001008B2A010028220200410070
:103AF00002006FF51400410002006FF50200671923
:103B000001002822010067190100210001008B2A11
:103B100004002100010029B3C200E408010029B318
:103B20000400210001008B2A0100210001008B2AE2
:103B3000010028220200671902006FF514004100FD
:103B400002006FF50200410001002822010041003F
:103B50000100210001008B2A04002100010029B38B
:103B6000C200E408010029B30400210001008B2AEF
:103B70000100210001008B2A0100282202004100DF
:103B800002006FF51400410002006FF502004100D1
:103B900001002822010041000100210001008B2AC0
:103BA00004002100C40029B30400210001008B2A75
:103BB0000100210001008B2A01002822020041009F
:103BC00002006FF50A0041000A00830802006FF549
:103BD000020083080100282201008308010021005F
:103BE00001008B2ACC00210001008B2A010021005A
:103BF00001008B2A010028220200830802006FF5D1
:103C00000A0083080A00410002006FF5020041002B
:103C100001002822010041000100210001008B2A3F
:103C2000CC00210001008B2A0100210001008B2A19
:103C3000010028220200410002006FF5140041003B
:103C400002006FF50200410001002822010041003E
:103C50000100210001008B2ACC00210001008B2AE9
:103C60000100210001008B2A0100282202004100EE
:103C700002006FF51400410002006FF502004100E0
:103C800001002822010041000100210001008B2ACF
:103C9000CC00210001008B2A0100210001008B2AA9
:103CA000010028220200410002006FF514004100CB
:103CB00002006FF5020041000100282201004100CE
:103CC0000100210001008B2ACC00210001008B2A79
:103CD0000100210001008B2A01002822020041007E
:103CE00002006FF50A0041000A00830802006FF528
:103CF000020083080100282201008308010021003E
:103D000001008B2ACC00210001008B2A0100210038
:103D100001008B2A010028220200830802006FF5AF
:103D20000A0083080A00410002006FF5020041000A
:103D300001002822010041000100210001008B2A1E
:103D4000CC00210001008B2A0100210001008B2AF8
:103D5000010028220200410002006FF5140041001A
:103D600002006FF50200410001002822010041001D
:103D70000100210001008B2ACC00210001008B2AC8
:103D80000100210001008B2A0100282202004100CD
:103D900002006FF51400410002006FF502004100BF
:103DA00001002822010041000100210001008B2AAE
:103DB000CC00210001008B2A0100210001008B2A88
:103DC000010028220200410002006FF514004100AA
:103DD00002006FF5020041000100282201004100AD
:103DE0000100210001008B2A4600210040006FF5F0
:103DF0004600210001008B2A0100210001008B2ACE
:103E0000010028220200410002006FF50A00410073
:103E10000A00830802006FF50200830801002822CF
:103E2000010083080100210001008B2A46002100C7
:103E300040006FF54600210001008B2A010021009F
:103E400001008B2A010028220200830802006FF57E
:103E50000A0083080A00410002006FF502004100D9
:103E600001002822010041000100210001008B2AED
:103E7000CC00210001008B2A0100210001008B2AC7
:103E8000010028220200410002006FF514004100E9
:103E900002006FF5020041000100282201004100EC
:103EA0000100210001008B2ACC00210001008B2A97
:103EB0000100210001008B2A01002822020041009C
:103EC00002006FF51400410002006FF5020067194F
:103ED00001002822010067190100210001008B2A3E
:103EE000CC00210001008B2A0100210001008B2A57
:103EF000010028220200671902006FF5140041003A
:103F000002006FF50200410001002822010041007B
:103F10000100210001008B2ACC00210001008B2A26
:103F20000100210001008B2A01002822020041002B
:103F300002006FF50A0041000A00830802006FF5D5
:103F400002008308010028220100830801002100EB
:103F500001008B2A360021006000BD673600210079
:103F600001008B2A0100210001008B2A0100282278
:103F70000200830802006FF50A0083080A0041006E
:103F800002006FF5020041000100282201004100FB
:103F90000100210001008B2A360021006000BD676E
:103FA0003600210001008B2A0100210001008B2A2C
:103FB000010028220200410002006FF514004100B8
:103FC00002006FF5020041000100282201004100BB
:103FD0000100210001008B2A360021006000BD672E
:103FE0003600210001008B2A0100210001008B2AEC
:103FF000010028220200410002006FF51400410078
:1040000002006FF50200410001002822010041007A
:104010000100210001008B2ACC00210001008B2A25
:104020000100210001008B2A01002822020041002A
:1040300002006FF51400410002006FF5020041001C
:1040400001002822010041000100210001008B2A0B
:10405000CC00210001008B2A0100210001008B2AE5
:10406000010028220200410002006FF50A00410011
:104070000A00830802006FF502008308010028226D
:10408000010083080100210001008B2ACC002100DF
:1040900001008B2A0100210001008B2A0100282247
:1040A0000200830802006FF50A0083080A0041003D
:1040B00002006FF5020041000100282201004100CA
:1040C0000100210001008B2A1F0021008E006FF5E6
:1040D0001F00210001008B2A0100210001008B2A12
:1040E000010028220200410002006FF51400410087
:1040F00002006FF50200410001002822010041008A
:104100000100210001008B2A1F0021008E006FF5A5
:104110001F00210001008B2A0100210001008B2AD1
:10412000010028220200410002006FF51400410046
:1041300002006FF502004100010028220100410049
:104140000100210001008B2A1F0021008E006FF565
:104150001F00210001008B2A0100210001008B2A91
:10416000010028220200410002006FF51400410006
:1041700002006FF502004100010028220100410009
:104180000100210001008B2A1F0021008E006FF525
:104190001F00210001008B2A0100210001008B2A51
:1041A000010028220200410002006FF50A004100D0
:1041B0000A00830802006FF502008308010028222C
:1041C000010083080100210001008B2A1F0021004B
:1041D0008E006FF51F00210001008B2A01002100D5
:1041E00001008B2A010028220200830802006FF5DB
:1041F0000A0083080A00410002006FF50200410036
:1042000001002822010041000100210001008B2A49
:104210001F0021008E006FF51F00210001008B2A76
:104220000100210001008B2A010028220200410028
:1042300002006FF51400410002006FF5020041001A
:1042400001002822010041000100210001008B2A09
:104250001F0021008E006FF51F00210001008B2A36
:104260000100210001008B2A0100282202004100E8
:1042700002006FF51400410002006FF502004100DA
:1042800001002822010041000100210001008B2AC9
:104290001F0021008E006FF51F00210001008B2AF6
:1042A0000100210001008B2A0100282202004100A8
:1042B00002006FF51400410002006FF5020067195B
:1042C00001002822010067190100210001008B2A4A
:1042D0001F00210008006FF57E00D1FD08006FF57A
:1042E0001F00210001008B2A0100210001008B2A00
:1042F000010028220200671902006FF50A00410040
:104300000A00830802006FF50200830801002822DA
:10431000010083080100210001008B2A1F002100F9
:1043200008006FF57E00D1FD08006FF51F00210029
:1043300001008B2A0100210001008B2A01002822A4
:104340000200830802006FF50A0083080A0041009A
:1043500002006FF502004100010028220100410027
:104360000100210001008B2A1F00210008006FF5C9
:104370007E00D1FD08006FF51F00210001008B2A8F
:104380000100210001008B2A0100282202004100C7
:1043900002006FF51400410002006FF502004100B9
:1043A00001002822010041000100210001008B2AA8
:1043B0001F00210008006FF57E00D1FD08006FF599
:1043C0001F00210001008B2A0100210001008B2A1F
:1043D000010028220200410002006FF51400410094
:1043E00002006FF502004100010028220100410097
:1043F0000100210001008B2A1F00210008006FF539
:104400007E00D1FD08006FF51F00210001008B2AFE
:104410000100210001008B2A010028220200410036
:1044200002006FF51400410002006FF50200410028
:1044300001002822010041000100210001008B2A17
:104440001F00210008006FF57E00D1FD08006FF508
:104450001F00210001008B2A0100210001008B2A8E
:10446000010028220200410002006FF50A0041000D
:104470000A00830802006FF5020083080100282269
:10448000010083080100210001008B2A1F00210088
:1044900008006FF57E00D1FD08006FF51F002100B8
:1044A00001008B2A0100210001008B2A0100282233
:1044B0000200830802006FF50A0083080A00410029
:1044C00002006FF5020041000100282201004100B6
:1044D0000100210001008B2A1F00210008006FF558
:1044E0001200D1FD0E0021003E00D1FD0E00210082
:1044F0001200D1FD08006FF51F00210001008B2A7A
:104500000100210001008B2A010028220200410045
:1045100002006FF51400410002006FF502008B2AC3
:104520000100282201008B2A0100210001008B2AB2
:104530001F00210008006FF51200D1FD0E002100C0
:104540003E00D1FD0E0021001200D1FD08006FF5E4
:104550001F00210001008B2A0100210001008B2A8D
:104560000100282202008B2A02006FF5140041008E
:1045700002006FF502004100010028220100410005
:104580000100210001008B2A1F00210008006FF5A7
:104590001200D1FD0E0021003E00D1FD0E002100D1
:1045A0001200D1FD08006FF51F00210001008B2AC9
:1045B0000100210001008B2A010028220200410095
:1045C00002006FF51400410002006FF50200410087
:1045D00001002822010041000100210001008B2A76
:1045E0001F00210008006FF51200D1FD0E00210010
:1045F0003E00D1FD0E0021001200D1FD08006FF534
:104600001F00210001008B2A0100210001008B2ADC
:10461000010028220200410002006FF50A0041005B
:104620000A00830802006FF50200830801002822B7
:10463000010083080100210001008B2A1F002100D6
:1046400008006FF51200D1FD0E0021003E00D1FDE3
:104650000E0021001200D1FD08006FF51F0021009F
:1046600001008B2A0100210001008B2A0100282271
:104670000200830802006FF50A0083080A00410067
:1046800002006FF5020041000100282201004100F4
:104690000100210001008B2A1F00210008006FF596
:1046A0001200D1FD0E0021003E00D1FD0E002100C0
:1046B0001200D1FD08006FF51F00210001008B2AB8
:1046C0000100210001008B2A010028220200410084
:1046D00002006FF51400410002006FF50200410076
:1046E00001002822010041000100210001008B2A65
:1046F0001F00210008006FF51200D1FD0E002100FF
:104700003E00D1FD0E0021001200D1FD08006FF522
:104710001F00210001008B2A0100210001008B2ACB
:10472000010028220200410002006FF51400410040
:1047300002006FF502004100010028220100410043
:104740000100210001008B2A1F00210008006FF5E5
:104750001200D1FD0E0021003E00D1FD0E0021000F
:104760001200D1FD08006FF51F00210001008B2A07
:104770000100210001008B2A0100282202004100D3
:1047800002006FF51400410002006FF502004100C5
:1047900001002822010041000100210001008B2AB4
:1047A0001F00210008006FF51200D1FD0E0021004E
:1047B0003E00D1FD0E0021001200D1FD08006FF572
:1047C0001F00210001008B2A0100210001008B2A1B
:1047D000010028220200410002006FF50A0041009A
:1047E0000A00830802006FF5020067190100282201
:1047F000010067190100210001008B2A1F00210020
:1048000008006FF51200D1FD0E0021003E00D1FD21
:104810000E0021001200D1FD08006FF51F002100DD
:1048200001008B2A0100210001008B2A01002822AF
:104830000200671902006FF50A0083080A004100B0
:1048400002006FF502004100010028220100410032
:104850000100210001008B2A1F00210008006FF5D4
:104860001200D1FD0E0021003E00D1FD0E002100FE
:104870001200D1FD08006FF51F00210001008B2AF6
:104880000100210001008B2A0100282202004100C2
:1048900002006FF51400410002006FF502004100B4
:1048A00001002822010041000100210001008B2AA3
:1048B0001F00210008006FF51200D1FD0E0021003D
:1048C0003E00D1FD0E0021001200D1FD08006FF561
:1048D0001F00210001008B2A0100210001008B2A0A
:1048E000010028220200410002006FF5140041007F
:1048F00002006FF502004100010028220100410082
:104900000100210001008B2A1F00210008006FF523
:104910001200D1FD0E0021003E00D1FD0E0021004D
:104920001200D1FD08006FF51F00210001008B2A45
:104930000100210001008B2A010028220200410011
:1049400002006FF51400410002006FF50200410003
:1049500001002822010041000100210001008B2AF2
:104960001F00210008006FF51200D1FD0E0021008C
:104970003E00D1FD0E0021001200D1FD08006FF5B0
:104980001F00210001008B2A0100210001008B2A59
:10499000010028220200410002006FF50A004100D8
:1049A0000A00830802006FF5020083080100282234
:1049B000010083080100210001008B2A1F00210053
:1049C00008006FF51200D1FD0E0021003E00D1FD60
:1049D0000E0021001200D1FD08006FF51F0021001C
:1049E00001008B2A0100210001008B2A01002822EE
:1049F0000200830802006FF50A0083080A004100E4
:104A000002006FF502004100010028220100410070
:104A10000100210001008B2A1F00210008006FF512
:104A20001200D1FD0E0021003E00D1FD0E0021003C
:104A30001200D1FD08006FF51F00210001008B2A34
:104A40000100210001008B2A010028220200410000
:104A500002006FF51400410002006FF502004100F2
:104A600001002822010041000100210001008B2AE1
:104A70001F00210008006FF51200D1FD0E0021007B
:104A80003E00D1FD0E0021001200D1FD08006FF59F
:104A90001F00210001008B2A0100210001008B2A48
:104AA000010028220200410002006FF514004100BD
:104AB00002006FF5020041000100282201004100C0
:104AC0000100210001008B2A1C0021000C006FF561
:104AD0001100D1FD0E0021003E00D1FD0E0021008D
:104AE0001100D1FD0C006FF51C00210001008B2A84
:104AF0000100210001008B2A010028220200410050
:104B000002006FF51400410002006FF50200410041
:104B100001002822010041000100210001008B2A30
:104B20001C0021000C006FF57C00D1FD0C006FF51E
:104B30001C00210001008B2A0100210001008B2AAA
:104B4000010028220200410002006FF50A00410026
:104B50000A00830802006FF5020083080100282282
:104B6000010083080100210001008B2A1C002100A4
:104B70000C006FF57C00D1FD0C006FF51C002100CE
:104B800001008B2A0100210001008B2A010028224C
:104B90000200830802006FF50A0083080A00410042
:104BA00002006FF5020041000100282201004100CF
:104BB0000100210001008B2A1C0021000C006FF570
:104BC0007C00D1FD0C006FF51C00210001008B2A38
:104BD0000100210001008B2A01002822020041006F
:104BE00002006FF51400410002006FF50200410061
:104BF00001002822010041000100210001008B2A50
:104C00001C0021000C006FF57C00D1FD0C006FF53D
:104C10001C00210001008B2A0100210001008B2AC9
:104C2000010028220200410002006FF5140041003B
:104C300002006FF50200410001002822010041003E
:104C40000100210001008B2A1C0021000C006FF5DF
:104C50007C00D1FD0C006FF51C00210001008B2AA7
:104C60000100210001008B2A0100282202004100DE
:104C700002006FF51400410002006FF502004100D0
:104C800001002822010041000100210001008B2ABF
:104C90001C0021000C006FF57C00D1FD0C006FF5AD
:104CA0001C00210001008B2A0100210001008B2A39
:104CB000010028220200410002006FF50A004100B5
:104CC0000A00830802006FF5020083080100282211
:104CD000010083080100210001008B2A1C00210033
:104CE0000C006FF57C00D1FD0C006FF51C0021005D
:104CF00001008B2A0100210001008B2A01002822DB
:104D00000200830802006FF50A0083080A004100D0
:104D100002006FF5020067190100282201006719DF
:104D20000100210001008B2A1C0021000C006FF5FE
:104D30007C00D1FD0C006FF51C00210001008B2AC6
:104D40000100210001008B2A0100282202006719BE
:104D500002006FF51400410002006FF502004100EF
:104D600001002822010041000100210001008B2ADE
:104D70001C0021000C006FF57C00D1FD0C006FF5CC
:104D80001C00210001008B2A0100210001008B2A58
:104D9000010028220200410002006FF514004100CA
:104DA00002006FF5020041000100282201004100CD
:104DB0000100210001008B2A1C0021000C006FF56E
:104DC0007C00D1FD0C006FF51C00210001008B2A36
:104DD0000100210001008B2A01002822020041006D
:104DE00002006FF51400410002006FF5020041005F
:104DF00001002822010041000100210001008B2A4E
:104E00001C0021000C006FF50200D1FD78007CE74A
:104E10000200D1FD0C006FF51C00210001008B2A5F
:104E20000100210001008B2A01002822020041001C
:104E300002006FF50A0041000A00830802006FF5C6
:104E400002008308010028220100830801002100DC
:104E500001008B2A1C0021000C006FF50200D1FD1F
:104E600078007CE70200D1FD0C006FF51C002100EA
:104E700001008B2A0100210001008B2A0100282259
:104E80000200830802006FF50A0083080A0041004F
:104E900002006FF5020041000100282201004100DC
:104EA0000100210001008B2A1C0021000C006FF57D
:104EB0000200D1FD78007CE70200D1FD0C006FF507
:104EC0001C00210001008B2A0100210001008B2A17
:104ED000010028220200410002006FF51400410089
:104EE00002006FF50200410001002822010041008C
:104EF0000100210001008B2A1C0021000C006FF52D
:104F00000200D1FD78007CE70200D1FD0C006FF5B6
:104F10001C00210001008B2A0100210001008B2AC6
:104F2000010028220200410002006FF51400410038
:104F300002006FF50200410001002822010041003B
:104F40000100210001008B2A1C0021000E006FF5DA
:104F500078007CE70E006FF51C00210001008B2A11
:104F60000100210001008B2A0100282202004100DB
:104F700002006FF51400410002006FF502004100CD
:104F800001002822010041000100210001008B2ABC
:104F90001C0021000E006FF578007CE70E006FF515
:104FA0001C00210001008B2A0100210001008B2A36
:104FB000010028220200410002006FF50A004100B2
:104FC0000A00830802006FF502008308010028220E
:104FD000010083080100210001008B2A1C00210030
:104FE0000E006FF57800BD670E006FF51C00210004
:104FF00001008B2A0100210001008B2A01002822D8
:105000000200830802006FF50A0083080A004100CD
:1050100002006FF50200410001002822010041005A
:105020000100210001008B2A1C0021000E006FF5F9
:105030007800BD670E006FF51C00210001008B2A6F
:105040000100210001008B2A0100282202004100FA
:1050500002006FF51400410002006FF502004100EC
:1050600001002822010041000100210001008B2ADB
:105070001C0021000E006FF57800BD670E006FF573
:105080001C00210001008B2A0100210001008B2A55
:10509000010028220200410002006FF514004100C7
:1050A00002006FF5020041000100282201004100CA
:1050B0000100210001008B2A1C00210094006FF5E3
:1050C0001C00210001008B2A0100210001008B2A15
:1050D000010028220200410002006FF51400410087
:1050E00002006FF50200410001002822010041008A
:1050F0000100210001008B2A1C00210094006FF5A3
:105100001C00210001008B2A0100210001008B2AD4
:10511000010028220200410002006FF50A00410050
:105120000A00830802006FF50200830801002822AC
:10513000010083080100210001008B2A1C002100CE
:1051400094006FF51C00210001008B2A0100210052
:1051500001008B2A010028220200830802006FF55B
:105160000A0083080A00410002006FF502004100B6
:1051700001002822010041000100210001008B2ACA
:105180002D0021000C006FF51A0021000C006FF5B6
:105190000E0021000C006FF51A0021000C006FF5C5
:1051A0002D00210001008B2A0100210001008B2A23
:1051B000010028220200410002006FF514004100A6
:1051C00002006FF50200671901002822010067192B
:1051D0000100210001008B2A2D0021000C006FF539
:1051E0001A0021000C006FF50E0021000C006FF575
:1051F0001A0021000C006FF52D00210001008B2A00
:105200000100210001008B2A0100282202006719F9
:1052100002006FF51400410002006FF5020041002A
:1052200001002822010041000100210001008B2A19
:105230002D0021000C006FF51A0021000C006FF505
:105240000E0021000C006FF51A0021000C006FF514
:105250002D00210001008B2A0100210001008B2A72
:10526000010028220200410002006FF514004100F5
:1052700002006FF5020041000100282201004100F8
:105280000100210001008B2A2D0021000C006FF588
:105290001A0021000C006FF50E0021000C006FF5C4
:1052A0001A0021000C006FF52D00210001008B2A4F
:1052B0000100210001008B2A010028220200410088
:1052C00002006FF50A0041000A00830802006FF532
:1052D0000200830801002822010083080100210048
:1052E00001008B2A2D0021000C006FF51A0021000F
:1052F0000C006FF50E0021000C006FF51A00210064
:105300000C006FF52D00210001008B2A0100210007
:1053100001008B2A010028220200830802006FF599
:105320000A0083080A00410002006FF502004100F4
:1053300001002822010041000100210001008B2A08
:105340002D0021000C006FF5120021000300717484
:1053500001002100010071740300210001006FF5BC
:105360000100717402006FF50100717401006FF5A6
:105370000100717401006FF50200717402006FF595
:10538000030071740B0021000C006FF51A0021005E
:105390000C006FF52D00210001008B2A0100210077
:1053A00001008B2A010028220200410002006FF553
:1053B0001400410002006FF50200410001002822A4
:1053C000010041000100210001008B2A2D00210075
:1053D0000C006FF512002100010071740300210020
:1053E00001007174030021000100717401006FF568
:1053F0000100717401006FF50100717401006FF517
:105400000100717401006FF50100717401006FF506
:105410000100717401006FF5010071740D0021002D
:105420000C006FF51A0021000C006FF52D00210013
:1054300001008B2A0100210001008B2A0100282293
:105440000200410002006FF51400410002006FF5F8
:10545000020041000100282201004100010021005A
:1054600001008B2A2D0021000C006FF51200210095
:105470000100717403002100010071740300210018
:105480000300717401006FF50100717401006FF584
:105490000100717401006FF50100717401006FF576
:1054A0000100717401006FF5020071740C0021009D
:1054B0000C006FF51A0021000C006FF52D00210083
:1054C00001008B2A0100210001008B2A0100282203
:1054D0000200410002006FF51400410002006FF568
:1054E00002004100010028220100410001002100CA
:1054F00001008B2A2D0021000C006FF51200210005
:105500000100717403002100010071740300210087
:105510000100717401006FF50100717401006FF5F5
:105520000100717401006FF50100717401006FF5E5
:105530000100717401006FF50100717401006FF5D5
:10554000010071740D0021000C006FF51A0021009C
:105550000C006FF52D00210001008B2A01002100B5
:1055600001008B2A010028220200410002006FF591
:105570000A0041000A00830802006FF50200830858
:1055800001002822010083080100210001008B2A6C
:105590002D0021000C006FF5120021000300717432
:1055A00001002100030071740100210001007174E9
:1055B00001006FF50100717401006FF50300717453
:1055C00001006FF50200717402006FF50300717441
:1055D0000B0021000C006FF51A0021000C006FF584
:1055E0002D00210001008B2A0100210001008B2ADF
:1055F000010028220200830802006FF50A008308D8
:105600000A00410002006FF502004100010028225B
:10561000010041000100210001008B2A2D00210022
:105620000C006FF51A0021000C006FF50E00210030
:105630000C006FF51A0021000C006FF52D00210001
:1056400001008B2A0100210001008B2A0100282281
:105650000200410002006FF51400410002006FF5E6
:105660000200410001002822010041000100210048
:1056700001008B2A2D0021000C006FF51A0021007B
:105680000C006FF50E0021000C006FF51A002100D0
:105690000C006FF52D00210001008B2A0100210074
:1056A00001008B2A010028220200410002006FF550
:1056B0001400410002006FF50200410001002822A1
:1056C000010041000100210001008B2A2D00210072
:1056D0000C006FF51A0021000C006FF50E00210080
:1056E0000C006FF51A0021000C006FF52D00210051
:1056F00001008B2A0100210001008B2A01002822D1
:105700000200410002006FF51400410002006FF535
:105710000200410001002822010041000100210097
:1057200001008B2A2D0021000C006FF51A002100CA
:105730000C006FF50E0021000C006FF51A0021001F
:105740000C006FF52D00210001008B2A01002100C3
:1057500001008B2A010028220200410002006FF59F
:105760000A0041000A00830802006FF50200830866
:1057700001002822010083080100210001008B2A7A
:105780002D0021000C006FF51A0021000C006FF5B0
:105790000E0021000C006FF51A0021000C006FF5BF
:1057A0002D00210001008B2A0100210001008B2A1D
:1057B000010028220200830802006FF50A00830816
:1057C0000A00410002006FF502004100010028229A
:1057D000010041000100210001008B2A2D00210061
:1057E0000C006FF51A0021000C006FF50E0021006F
:1057F0000C006FF51A0021000C006FF52D00210040
:1058000001008B2A0100210001008B2A01002822BF
:105810000200410002006FF51400410002006FF524
:105820000200410001002822010041000100210086
:1058300001008B2A2D0021000C006FF51A002100B9
:105840000C006FF50E0021000C006FF51A0021000E
:105850000C006FF52D00210001008B2A01002100B2
:1058600001008B2A010028220200410002006FF58E
:105870001400410002006FF50200671901002822A0
:10588000010067190100210001008B2A2D00210071
:105890000C006FF51A0021000C006FF50E002100BE
:1058A0000C006FF51A0021000C006FF52D0021008F
:1058B00001008B2A0100210001008B2A010028220F
:1058C0000200671902006FF51400410002006FF535
:1058D00002004100010028220100410001002100D6
:1058E00001008B2A2D0021000C006FF51A00210009
:1058F0000C006FF50E0021000C006FF51A0021005E
:105900000C006FF52D00210001008B2A0100210001
:1059100001008B2A010028220200410002006FF5DD
:105920000A0041000A00830802006FF502008308A4
:1059300001002822010083080100210001008B2AB8
:105940002D0021000C006FF51A0021000C006FF5EE
:105950000E0021000C006FF51A0021000C006FF5FD
:105960002D00210001008B2A0100210001008B2A5B
:10597000010028220200830802006FF50A00830854
:105980000A00410002006FF50200410001002822D8
:10599000010041000100210001008B2A2D0021009F
:1059A0000C006FF51A0021000C006FF50E002100AD
:1059B0000C006FF51A0021000C006FF52D0021007E
:1059C00001008B2A0100210001008B2A01002822FE
:1059D0000200410002006FF51400410002006FF563
:1059E00002004100010028220100410001002100C5
:1059F00001008B2A2D0021000C006FF51A002100F8
:105A00000C006FF50E0021000C006FF51A0021004C
:105A10000C006FF52D00210001008B2A01002100F0
:105A200001008B2A010028220200410002006FF5CC
:105A30001400410002006FF502004100010028221D
:105A4000010041000100210001008B2A2D002100EE
:105A50000C006FF51A0021000C006FF50E002100FC
:105A60000C006FF51A0021000C006FF52D002100CD
:105A700001008B2A0100210001008B2A010028224D
:105A80000200410002006FF51400410002006FF5B2
:105A90000200410001002822010041000100210014
:105AA00001008B2A2D0021000C006FF51A00210047
:105AB0000C006FF50E0021000C006FF51A0021009C
:105AC0000C006FF52D00210001008B2A0100210040
:105AD00001008B2A010028220200410002006FF51C
